:020000040000FA
:100000000C94D0020C94FA020C94FA020C94FA02AA
:100010000C94FA020C94FA020C94FA020C94FA0270
:100020000C94FA020C94FA020C94FA020C94FA0260
:100030000C94FA020C94FA020C94FA020C94FA0250
:100040000C94FA020C94FA020C947D3D0C94FA0282
:100050000C94A9400C94EB400C94FA020C94FA0214
:100060000C94FA020C94FA020C944D3C0C94FA0293
:100070000C94FA020C94FA020C94FA020C94FA0210
:100080000C94FA020C94FA020C94FA024C6F61641C
:10009000696E672064656661756C74206E6574773F
:1000A0006F726B2073657474696E677300AF003193
:1000B00010FD2152FDCDC6FECD3EFFCDF4FD3EFF2D
:1000C000BC2010BD200D21D9FDCDC6FE2188FDCD5F
:1000D000C6FE76E521D9FDCDC6FE2175FDCDC6FE55
:1000E000E1CD4BFFCD3EFFCD3EFFDB01FEFF20FA11
:1000F000E9694C6F6164202D20496E74656C2D4850
:100100006578204C6F61646572202D205332303049
:10011000373138005374617274696E6720416464CA
:10012000726573733A20004C6F6164206572726F60
:1001300072202D2053797374656D2068616C74652D
:10014000640057616974696E6720696E7075742008
:1001500073747265616D2E2E2E0053796E74617802
:10016000206572726F722100436865636B73756DF1
:10017000206572726F722100694C6F61643A2000D1
:10018000416464726573732076696F6C6174696F22
:100190006E2100F5D5C501FFFF21A3FDCDC6FECD23
:1001A0003EFFCD72FFFE0D28F9FE0A28F5FE20283D
:1001B000F1CD1AFFCD69FFFE3AC2A3FECDE1FE5795
:1001C0001E00CDBEFECDD6FE3EFFB82005B92002F2
:1001D000444D7CCDBEFE7DCDBEFECDE1FECDBEFE4E
:1001E000FE01201ECDE1FECDBEFE7BA72866CD3EE2
:1001F000FF21D9FDCDC6FE21C9FDCDC6FE01FFFF01
:1002000018527AA7282CCDE1FECDBEFEE5C5A70188
:10021000F0FCED42C1E1DA8EFECD3EFF21D9FDCDED
:10022000C6FE21E1FDCDC6FE01FFFF18277723158D
:1002300018D0CDE1FECDBEFE7BA720B2CD3EFFC3E0
:1002400003FECD3EFF21D9FDCDC6FE21BBFDCDC6AF
:10025000FE01FFFFCD3EFF6069C1D1F1C9C54F7BF3
:10026000915F79C1C9F5E57EFE002806CD69FF23BF
:1002700018F5E1F1C9F5CDE1FE67CDE1FE6FF1C9F9
:10028000C5CDF4FECB07CB07CB07CB0747CDF4FE9C
:10029000B0C1C9CD72FFCD1AFFCD06FF30F5CD2319
:1002A000FFCD2EFFC9FE47D0FE3030023FC9FE3AD7
:1002B000D8FE4130023FC937C9FE61D8FE7BD0E687
:1002C0005FC9FE3A3802D607D630E60FC9F5E60F09
:1002D000C630FE3A3802C607CD69FFF1C9F53E0DBA
:1002E000CD69FF3E0ACD69FFF1C9E5F57CCD58FF28
:1002F0007DCD58FFF1E1C9F5C5470F0F0F0FCD2E8A
:10030000FF78CD2EFFC1F1C9F53E01D301F1D30035
:10031000C9DB01FEFFCA72FFC95B57353530305D5E
:10032000205735353030207265736574204F4B008F
:100330005B57353530305D205735353030207265AC
:10034000736574204552524F52005B57353530303B
:100350005D20573535303020726573657400446513
:100360006163746976617465640041637469766180
:10037000746564005B54454C4E45545D2052657075
:100380006C69656420274941432057494C4C2045FE
:1003900043484F2720746F202749414320444F2072
:1003A0004543484F2720726571756573740D0A00C7
:1003B000636C69656E742069735F74656C6E6574D7
:1003C0000D0A005B54454C4E45545D2053656E64E8
:1003D000696E672062616E6E6572206F6E20736F4A
:1003E000636B657420005B54454C4E45545D20534F
:1003F000656E64696E67206D696E692049414320AE
:100400006F6E20736F636B657420005B54454C4EB8
:1004100045545D2053656E64696E672049414320F1
:100420006F6E20736F636B657420005B54454C4E98
:1004300045545D205A6F6D6269652074696D656F02
:1004400075743A20E2869220726573657474696EE1
:100450006720736F636B657420005B54454C4E4599
:10046000545D2048616E67757020726571756573A3
:10047000743A20E2869220726573657474696E67BF
:1004800020736F636B657420005B54454C4E45547C
:100490005D20434C4F53455F5741495420E28692BB
:1004A00020434C4F5345206F6E20736F636B657410
:1004B00020005B54454C4E45545D20434C4F534502
:1004C0004420E28692204C495354454E206F6E20C2
:1004D000736F636B657420005B54454C4E45545DEF
:1004E00020446973636F6E6E656374656420736F17
:1004F000636B657420005B4552525D205735353083
:1005000030206E6F7420666F756E642120564552E0
:1005100053494F4E52203D20000000000203000AC4
:100520000B000000000504090800000000000000A6
:10053000000000000000000000010204081020403C
:1005400080010204081020408001020408102040AD
:10055000800102040810204080020202020202020E
:100560000204040404040404040303030303030354
:100570000301010101010101010000200023002607
:1005800000290000002200250028002B0000002187
:1005900000240027002A00002B083A3B1F4137089F
:1005A00011241FBECFEFD0E4DEBFCDBF16E1A0E027
:1005B000B1E0E4E7F8E900E00BBF02C007900D925C
:1005C000AC3EB107D9F725E3ACEEB6E101C01D9210
:1005D000AC3DB207E1F712E0CFECD2E004C02197C6
:1005E000FE010E947645CC3CD107C9F70E94144316
:1005F0000C942D4C0C9400000F931F93CF93DF931A
:1006000004E910E3CAE0D0E0CE010E94074CF801F3
:1006100081938F012196C134D105B1F784E990E32C
:10062000DF91CF911F910F9108950C94074CDC013D
:10063000ED91FC910190F081E02D0994DC01ED91A8
:10064000FC910190F081E02D0994FF920F931F938C
:10065000CF93DF93EC01F62E08811981C8010E9427
:10066000074CF81621F06F2DC8010E940F4CCE01E7
:10067000DF91CF911F910F91FF900895CF93DF935A
:1006800000D0CDB7DEB79A838983CE0101960E9450
:1006900025030F900F90DF91CF910895EF92FF9275
:1006A0000F931F93CF93DF9300D0CDB7DEB784E9CC
:1006B000E82E80E3F82E0AE010E01A830983F701A0
:1006C00061917F01CE0101960E9425030F5F1F4FAC
:1006D0000134110591F784E990E30F900F90DF91B9
:1006E000CF911F910F91FF90EF900895CF93DF93DB
:1006F000D82F61E082E00E94103FCFEFC1B9D2B99C
:1007000061E08CE00E94D43E61E08CE00E94103FEA
:1007100060E08CE00E94103F11B8C2B9DF91CF9128
:100720000895CF92DF92EF92FF920F931F93CF9392
:10073000DF93CDB7DEB7D2500FB6F894DEBF0FBE51
:10074000CDBF9E01255F3D4FF901419151919F0120
:1007500060E072E08E010F5F1F4FC8010E942449C4
:100760006C01B80187E791E30E94BD418091331885
:1007700081FF0EC07801C701801B910B8C159D0570
:100780003CF4F70161917F0180E00E947439F3CF5E
:10079000DE5F0FB6F894DEBF0FBECDBFDF91CF9105
:1007A0001F910F91FF90EF90DF90CF90089560E040
:1007B00086E10E94103F61E080E00E94103F64E605
:1007C00070E080E090E00E941E3E60E080E00E94C9
:1007D000103F61E086E10C94103FCF93DF9300D08F
:1007E00000D000D0CDB7DEB70E94FC028091CA30A5
:1007F0008A3209F461C06CE870E087E791E30E94F7
:10080000C94186E0EDE1F1E0DE01119601900D9223
:100810008A95E1F786E0FE013196A4E9B0E3019004
:100820000D928A95E1F720EC20939A3098EA909304
:100830009B3010929C308CE380939D308FEF80939F
:100840009E3080939F308093A0301092A1302093EF
:10085000A2309093A3301092A43091E09093A530F1
:100860001092A6301092A7301092A8301092A930A2
:1008700088E08093AA308093AB308093AC30809333
:10088000AD309093AE309093AF309093B030909362
:10089000B13020ED37E03093B3302093B230809305
:1008A000B43063E271E085EB90E30E94E5488AE2B0
:1008B0008093CA300E944E0385EB90E3FC010190C7
:1008C0000020E9F7CF01865B9043459710F0109226
:1008D000C93026960FB6F894DEBF0FBECDBFDF91AC
:1008E000CF9108958EE291E09F938F930E949103A0
:1008F0000F900F9008956AE00E9434458295807FA2
:10090000890F0895982F92959F708F702AE0929F7B
:10091000800D11240895CF93C82F8A3040F48DE6BE
:1009200091E09F938F930E9491030F900F901F92DD
:10093000CF938EE494E09F938F930E9491030F9046
:100940000F900F900F90CF9108950F931F93CF9317
:10095000DF93EC018D810E948B040FE611E01F9361
:100960000F930E9491038E810E948B041F930F931B
:100970000E9491038F810E948B0481E293E19F93F7
:100980008F930E9491038C810E948B0401E711E0F8
:100990001F930F930E9491038B810E948B041F93DE
:1009A0000F930E9491038DB79EB70A960FB6F894E5
:1009B0009EBF0FBE8DBF8A81DF91CF911F910F9196
:1009C0000C948B04FB0123811F922F9322811F9291
:1009D0002F9321811F922F9320811F922F9323E722
:1009E00031E03F932F939F938F930E94F4488DB7EC
:1009F0009EB70C960FB6F8949EBF0FBE8DBF08959C
:100A0000FB0125811F922F9324811F922F93238115
:100A10001F922F9322811F922F9321811F922F9338
:100A200020811F922F9323E831E03F932F939F93D0
:100A30008F930E94F4488DB79EB740960FB6F894F6
:100A40009EBF0FBE8DBF08957F936F932EE434E059
:100A50003F932F939F938F930E94F4480F900F9092
:100A60000F900F900F900F900895BF92CF92DF924A
:100A7000EF92FF920F931F93CF93DF93C82EB62E62
:100A8000142F052FF22EE32E84E0D82EDC0C1F92BB
:100A9000DF92C1EAD1E0DF93CF930E9491030F90E0
:100AA0000F900F900F90CB1022C0EF92FF920F93F8
:100AB0001F9389EA91E09F938F930E9491031F9265
:100AC000DF92DF93CF930E9491038DB79EB70A9672
:100AD0000FB6F8949EBF0FBE8DBFDF91CF911F91CF
:100AE0000F91FF90EF90DF90CF90BF900895EF921D
:100AF000FF920F931F9388EB91E09F938F930E9437
:100B000091030F900F900F900F900F900F90E5CFE3
:100B1000CF92DF92EF92FF920F931F93CF93DF93C9
:100B2000CDB7DEB7A0970FB6F894DEBF0FBECDBF2E
:100B3000E82EF62E8A01C82ED12CC60104969F936A
:100B40008F9387EC91E09F938F930E9491030F9076
:100B50000F900F900F9089E08E15E8F0F601ED549C
:100B6000FA4F0C947645BD05DA05E905F805070648
:100B700016062506340643065206B801CE01019634
:100B80000E9400059E012F5F3F4F42ED51E06F2D07
:100B900080E00E943505A0960FB6F894DEBF0FBE28
:100BA000CDBFDF91CF911F910F91FF90EF90DF901C
:100BB000CF900895B8016A5F7F4FCE0101960E94E1
:100BC000E2049E012F5F3F4F4EED51E06F2D81E01B
:100BD000E0CFB801665F7F4FCE0101960E94E2042C
:100BE0009E012F5F3F4F49EE51E06F2D82E0D1CF44
:100BF000B801625F7F4FCE0101960E94E2049E0120
:100C00002F5F3F4F41EF51E06F2D83E0C2CFB8011E
:100C10006E5E7F4FCE0101960E94E2049E012F5F1F
:100C20003F4F49EF51E06F2D84E0B3CFB8016A5ECA
:100C30007F4FCE0101960E94E2049E012F5F3F4F3D
:100C400047E052E06F2D85E0A4CFB801665E7F4F8C
:100C5000CE0101960E94E2049E012F5F3F4F4CE0BF
:100C600052E06F2D86E095CFF801668D778DCE012D
:100C700001960E9424059E012F5F3F4F41E152E003
:100C80006F2D87E086CFF80160A170E0CE0101965C
:100C90000E9424059E012F5F3F4F45E252E06F2DD9
:100CA00088E077CF25EB30E34DE252E06F2D89E00D
:100CB00070CF0F931F93CF938B0189E392E09F93A3
:100CC0008F930E94910384E792E09F938F930E94F9
:100CD000910388EA92E09F938F930E9491030F9073
:100CE0000F900F900F900F900F90C0E0A80160E060
:100CF0008C2F0E948805CF5FCA30C1F78CED92E03F
:100D00009F938F930E94910382E193E09F938F932F
:100D10000E9491030F900F900F900F90CF911F9111
:100D20000F9108958C5F94E0411193E0969F602DA0
:100D30001124442391F0655E1F926F931F928F934D
:100D400088EA93E09F938F930E9491030F900F90F6
:100D50000F900F900F900F900895645EEDCFCF939A
:100D6000DF93D82FC0E0CD1751F061E08FE00E94F3
:100D7000103F60E08FE00E94103FCF5FF4CFDF9123
:100D8000CF910895CF93DF93D82F61E082E00E9446
:100D9000103F81E00E94AF06CFEFC1B986E382B970
:100DA00082E00E94AF0611B8C2B982E00E94AF068D
:100DB000C1B9D2B982E00E94AF0611B8C2B983E0CE
:100DC0000E94AF0681E00E94AF06C1B983E282B9FA
:100DD00082E00E94AF0611B8C2B983E00E94AF065C
:100DE00060E082E0DF91CF910C94103F1F93CF938E
:100DF000DF93182FD92F61E082E00E94103F81E03D
:100E00000E94AF06CFEFC1B981E282B982E00E94B1
:100E1000AF0611B8C2B982E00E94AF06C1B912B9DB
:100E200083E00E94AF06D2B982E00E94AF0611B8FB
:100E3000C2B960E082E0DF91CF911F910C94103F26
:100E400060E086E10E94103F86E00E94AF0661E00C
:100E500086E10E94103F82E00C94AF060E94232797
:100E600008950E94312808950F931F93CF93DF9325
:100E700000D0CDB7DEB78B01AE014F5F5F4F60E2B0
:100E800070E00E94B8299981F80190830F900F902B
:100E9000DF91CF911F910F9108950F931F93CF93DF
:100EA000DF9300D0CDB7DEB78B01AE014F5F5F4F50
:100EB00060E270E0009721F470E060E090E080E094
:100EC0000E948A2A9981F80190830F900F90DF91F8
:100ED000CF911F910F910895B0E0A0E0BC01CD012A
:100EE00029E0660F771F881F991F2A95D1F70E9466
:100EF0008E2B08950F931F93CF93DF93662309F4EE
:100F000076C08A01C62FD82F1F926F9381EB93E092
:100F10009F938F930E9491030F900F900F900F90CB
:100F200089ED93E0C330C1F058F486EC93E0C13012
:100F300099F08FEC93E0C23079F086E094E00CC039
:100F40008CEE93E0C53041F081EE93E0C53020F0A7
:100F500088EF93E0C63089F79F938F930E949103A7
:100F60000F900F908EE094E09F938F930E949103D7
:100F70000F900F908EE194E0D230A1F058F483E10D
:100F800094E0DD2379F089E194E0D13059F086E0F6
:100F900094E008C083E294E0D33021F089E294E049
:100FA000D430A9F79F938F930E9491030F900F90D5
:100FB0008EE294E09F938F930E9491030F900F9085
:100FC0000115110561F01F930F9389E394E09F933E
:100FD0008F930E9491030F900F900F900F9089E3D1
:100FE00098E09F938F930E9491030F900F90DF9151
:100FF000CF911F910F910895CF93C82F1F928F9378
:1010000085E494E09F938F930E949103C05DC09309
:10101000090187E091E00E94310769E077E18EE005
:1010200097E10E9434070F900F900F900F908091DE
:101030000917882371F08EE097E19F938F9381E5E4
:1010400094E09F938F930E9491030F900F900F90C5
:101050000F90CF91089567E574E08EE198E10E94CA
:10106000FE4260E674E088E198E10C94FE4288E17B
:1010700098E10E948C428EE198E10C948C42CF93CF
:10108000DF93EC0168E670E08BEC90E30E94BC3AE1
:1010900070E060E08BEC90E30E941E038A810E9466
:1010A0007B04682F8BEC90E30E94403A8B810E9476
:1010B0007B04682F8BEC90E30E94403A8C810E9465
:1010C0007B04682F8BEC90E30E94403A61E070E073
:1010D0008BEC90E30E941E038D810E947B04682F9D
:1010E0008BEC90E30E94403A8E810E947B04682F33
:1010F0008BEC90E30E94403A8F810E947B04682F22
:101100008BEC90E30E94403A8BEC90E30E94373BDB
:1011100068E670E08BEC90E30E94BC3A6FE070E010
:101120008BEC90E30E941E0368E070E08BEC90E390
:101130000E941E038BEC90E30E94373B1982DF91E3
:10114000CF91089587E791E30E94673F892B81F44F
:101150002091421E3091431E8091441E9091451E65
:101160002817390739F080913318869581700895D2
:1011700081E0089580E0089587E791E30E94673F4A
:10118000181619062CF487E791E30E94843FF4CFE8
:101190008091331881FF08C08091421E9091431EB8
:1011A0009093451E8093441E08950E94BC088CE6CF
:1011B00094E09F938F930E9491030F900F9087E785
:1011C00091E30E94673F18161906B4F02091421E61
:1011D0003091431E8091441E9091451E2817390777
:1011E00021F08091331881FD07C080912D1888234C
:1011F00031F30E945432E3CF0895CF92DF92EF9201
:10120000FF920F931F93CF93DF930E94BF3D6B011B
:101210007C01D1E0CFEF0E94A2088111B4C080917F
:101220002D1881110E9454320E94BF3D6C197D0916
:101230008E099F09683B7B4081059105A0F462E01F
:101240008DE00E94D43E8DE00E943E3F892B09F044
:10125000D0E061E08DE00E94D43E6AE070E080E082
:1012600090E00E941E3E0E94BF3D0091EC1610913E
:10127000ED162091EE163091EF16601B710B820B6C
:10128000930B6D32714081059105F8F080E00E946A
:101290003E3F61E0892B09F060E080E00E94103F52
:1012A0000E94BF3D6093EC167093ED168093EE168E
:1012B0009093EF16CC2349F080910117882329F0F1
:1012C000C15019F480E00E94442D0E94BF3D6C196A
:1012D0007D098E099F09693B7B408105910508F4D2
:1012E0009ACFDD2309F497CF88E690E00E9415039A
:1012F000893009F490CF60E080E00E94103F69E0FF
:1013000088E690E00E943E0388E994E09F938F93E3
:101310000E9491030F900F9080912D1881110E94CF
:1013200054320E94BF3DC090EC16D090ED16E09074
:10133000EE16F090EF166C197D098E099F0965363F
:1013400071058105910540F380E00E943E3F61E018
:10135000892B09F060E080E00E94103F8DE00E9440
:101360003E3F61E0892B09F060E08DE00E94103F74
:101370000E94BF3D6093EC167093ED168093EE16BD
:101380009093EF16C9CF87E791E30E94673F892BBF
:1013900079F087E791E30E94843F282F822FDF9125
:1013A000CF911F910F91FF90EF90DF90CF90089514
:1013B000809133182FEF81FFF1CF8091441E9091DF
:1013C000451EFC01E25DF74E2489019660E076E05F
:1013D0000E9440459093451E8093441EDFCFEF92BC
:1013E000FF920F931F93CF93DF93D09100188AEC55
:1013F00094E09F938F930E94910385EF94E09F93D5
:101400008F930E9491030F900F900F900F9082E1A5
:10141000E82E85E0F82E0EE216E0FF92EF920E9491
:101420009103809100180E948B0490E080E00E945C
:10143000FD08C82F0F900F908B3209F5809100188E
:101440008E3018F48F5F809300181F930F930E94C3
:1014500091030F900F90CD3001F7609100186D1738
:10146000B1F089E690E00E943E0380910018DF9180
:10147000CF911F910F91FF90EF900C9476038D32D6
:1014800021F780910018882301F38150DCCFDF9190
:10149000CF911F910F91FF90EF9008958F929F929F
:1014A000AF92BF92CF92DF92EF92FF92CF93DF93F2
:1014B0008BE195E09F938F930E94910385EF94E0D9
:1014C0009F938F930E9491030F900F900F900F9016
:1014D000C6E3D5E0A0910418B0E0119620E834E806
:1014E0004EE150E00E9499450E943B449B01AC01B3
:1014F00060E876E988E99BE40E9491434B015C0136
:101500000E9403446B01072E000C880B990B0E946C
:101510003B449B01AC01C501B4010E94244320E07F
:1015200030E048EC52E40E94C7440E9403447F9399
:101530006F93DF92CF92DF93CF930E94910390E05D
:1015400080E00E94FD080F900F900F900F900F9079
:101550000F90609104188D3239F4693008F0BACFD9
:101560006F5F60930418B6CF8B3229F4662309F4B9
:10157000B1CF6150F6CF8D3009F0ACCF86E690E068
:10158000DF91CF91FF90EF90DF90CF90BF90AF9021
:101590009F908F900C943E03CF92DF92EF92FF9238
:1015A000CF93DF93EC0190E080E00E94FD088D3046
:1015B00009F447C0883009F446C08F3709F443C0A6
:1015C00090ED980F9A3048F488838AE0DF91CF91AC
:1015D000FF90EF90DF90CF900895982F9F7D9154CA
:1015E000963090F38B3149F50E94BF3D6B017C0131
:1015F0000E94BF3D6C197D098E099F0964367105F3
:101600008105910510F088E0E1CF0E94A2088823AF
:1016100079F390E080E00E94FD088B35A1F790E01F
:1016200080E00E94FD08813481F0823481F08334AF
:1016300081F0843481F080E0C9CF8335E1F78BE01D
:10164000C5CF87E0C3CF89E0C1CF81E0BFCF82E0C3
:10165000BDCF84E0BBCF83E0B9CF8F929F92BF9282
:10166000CF92DF92EF92FF920F931F93CF93DF936E
:1016700000D000D000D01F92CDB7DEB77C01C62EBF
:10168000B42E40E060E08B2D0E94920600E010E056
:101690008C2D8150990B6C01CE0107960E94CC0ACB
:1016A00081508A30A8F4E82FF0E0E75AF44F0C9408
:1016B0007645790B820B630B740B8A0B930BD20B61
:1016C000680BBC0B9C0B112319F01150198200E020
:1016D00044E950E36B2D8B2D0E94880540E0612F7B
:1016E0008B2D0E949206D8CF1C151D048CF71F5F0E
:1016F000EDCFF701E10FF11D80818F3F49F38F5F3F
:101700008083E6CFF701E10FF11D8081882301F38B
:101710008150F6CFF701E10FF11D8081863F08F07F
:1017200085EF865FEDCFF701E10FF11D80818A30F3
:1017300008F48AE08A50E4CF053010F0198200E006
:1017400099249394900EE1E0F0E0EC0FFD1FE00F80
:10175000F11D8F818083E1E0F0E0EC0FFD1FE90DCA
:10176000F11D1082CE0101960E94AA48F701E10FF7
:10177000F11D8083092DACCF4701810E911C002300
:1017800071F00150E1E0F0E0EC0FFD1FE00FF11D02
:101790001082CE0101960E94AA48F401B1CFF40153
:1017A000108296CF27960FB6F894DEBF0FBECDBF3E
:1017B000DF91CF911F910F91FF90EF90DF90CF902D
:1017C000BF909F908F900895AF92BF92DF92EF925B
:1017D000FF920F931F93CF93DF9300D000D0CDB72C
:1017E000DEB77C01D62E198241E060E08D2D0E948B
:1017F000920600E010E0CE0104960E94CC0A8150CF
:101800008A30A8F4E82FF0E0E85FF34F0C947645B7
:10181000270C300C120C230C380C420C8A0C170CC1
:101820006F0C4B0C112319F01150198200E044E9A0
:1018300050E36D2D8D2D0E94880541E0612F8D2D87
:101840000E949206D8CF153090F71F5FEECFF701B8
:10185000E10FF11D80818F3F51F38F5F8083E7CFD0
:10186000F701E10FF11D8081882309F38150F6CF44
:10187000F701E10FF11D8081813F10F4805FEECF11
:101880008FEFECCFF701E10FF11D8081803108F47B
:1018900080E18051E3CF023010F0198200E0BB24D8
:1018A000B394B00EE1E0F0E0EC0FFD1FE00FF11D8E
:1018B0008C818083E1E0F0E0EC0FFD1FEB0DF11D6A
:1018C000108240E150E070E060E0CE0101960E949D
:1018D000A747F701E10FF11D60830B2DA8CF57013A
:1018E000A10EB11C002399F00150E1E0F0E0EC0FF3
:1018F000FD1FE00FF11D108240E150E070E060E05C
:10190000CE0101960E94A747F501608390CFF501B3
:1019100010828DCF0F900F900F900F90DF91CF918D
:101920001F910F91FF90EF90DF90BF90AF900895BF
:10193000AF92BF92CF92DF92EF92FF920F931F93DD
:10194000CF93DF9300D000D000D0CDB7DEB77C01BD
:1019500010E08CE4A82E85E0B82E90E5C92E95E025
:10196000D92E90E080E00E94FD088D3041F588EA94
:1019700096E09F938F930E9491030F900F901123F5
:1019800061F0E1E0F0E0EC0FFD1FE10FF11D1082CE
:10199000CE0101960E94AA487C01C70126960FB687
:1019A000F894DEBF0FBECDBFDF91CF911F910F9195
:1019B000FF90EF90DF90CF90BF90AF900895883068
:1019C00011F08F3751F4112361F21150BF92AF9291
:1019D0000E9491030F900F90C4CF90ED980F9A3012
:1019E00008F0BFCF153008F0BCCF01E0010FE1E0F7
:1019F000F0E0EC0FFD1FE10FF11D8083282F082E72
:101A0000000C330B3F938F93DF92CF920E94910390
:101A10000F900F900F900F90102FA3CFBF92CF92E7
:101A2000DF92EF92FF920F931F93CF93DF937C018E
:101A3000B62EC0E08CE4C82E85E0D82E00E515E077
:101A400090E080E00E94FD088D30D1F488EA96E0B5
:101A50009F938F930E9491030F900F9080E0CC236F
:101A600029F0CE0DDF2DD11D188281E0DF91CF91BD
:101A70001F910F91FF90EF90DF90CF90BF9008954E
:101A8000883011F08F3751F4CC23D1F2C150DF925E
:101A9000CF920E9491030F900F90D2CFCB1580F67A
:101AA000D1E0DC0FF701EC0FF11D8083282F082E09
:101AB000000C330B3F938F931F930F930E9491035E
:101AC0000F900F900F900F90CD2FBACF3F924F9263
:101AD0005F926F927F928F929F92AF92BF92CF92BE
:101AE000DF92EF92FF920F931F93CF93DF93CDB7C7
:101AF000DEB766970FB6F894DEBF0FBECDBF0E946B
:101B0000FC0264E970E380E00E945906712C91EABE
:101B1000C92E91E0D92E2AE1622E3DE0532E08EA2B
:101B200013E04CE0442E5BE0352E63E7A62E65E023
:101B3000B62E75EE872E75E0972ECE0146960E9442
:101B4000CC0A8130A1F4FF24FA94711018C089E006
:101B5000F82E44E950E36F2D872D0E94880544E953
:101B600050E36F2D8F2D0E9488057F2CE6CF8230A9
:101B700041F489E0F12C781661F3FF24F394F70C1B
:101B8000E8CF883041F50E94FC0264E970E3872DBC
:101B90000E94590683E595E09F938F930E949103DD
:101BA0000F900F9080E066960FB6F894DEBF0FBEE0
:101BB000CDBFDF91CF911F910F91FF90EF90DF90FC
:101BC000CF90BF90AF909F908F907F906F905F90DD
:101BD0004F903F9008958B3071F5BF92AF920E9465
:101BE000910390E080E00E94FD080F900F908937EC
:101BF000D9F490E080E00E94FD088536A9F490E0D9
:101C000080E00E94FD08833779F48AE28093CA302D
:101C10000E944E0380EA95E09F938F930E94910368
:101C20000F900F9081E0BFCF9F928F920E949103FF
:101C30000F900F9082CF873009F07FCFE72CF12CE7
:101C4000EFEFE70DE93070F4F0E0E75DF14F0C9451
:101C500076454B0E520E570E5C0E610E660E6B0EE5
:101C6000840E940E60E084E990E30E94E40B44E962
:101C700050E3672D872D0E94880584E0E80EF11C53
:101C8000FF92EF92DF92CF920E9491030F900F90FC
:101C90000F900F9052CF41E064E08AE990E30E94F8
:101CA0002D0BE5CF42E064E08EE990E3F8CF43E00E
:101CB00064E082EA90E3F3CF44E064E086EA90E3F4
:101CC000EECF45E064E08AEA90E3E9CF46E064E0E5
:101CD0008EEA90E3E4CF1F926F921F923F921F9380
:101CE0000F930E9491038091B2309091B3300E9483
:101CF000980C9093B3308093B2300F900F900F9068
:101D00000F900F900F90B3CF1F926F921F924F9230
:101D10001F930F930E9491038091B43090E00E9432
:101D2000980C8093B430E9CF65EB70E3CE01019657
:101D30000E94E5481F926F921F925F921F930F932C
:101D40000E94910364E1CE0101960E940E0D0F9056
:101D50000F900F900F900F900F90882309F487CF6A
:101D6000BE016F5F7F4F85EB90E30E94E5487FCF18
:101D7000DF92EF92FF920F931F93CF93DF93C09167
:101D8000DC17CC2309F44BC0D42FC72FD62E8C01DF
:101D900064E570E08BEC90E30E94BC3A612F70E048
:101DA0008BEC90E30E941703B80177278BEC90E34C
:101DB0000E94170360E08BEC90E30E94BE3A4D2F27
:101DC00064E58BEC90E30E94343BED2CFC2EC0E0EC
:101DD0008BEC90E30E94E039892B59F0DC1749F035
:101DE0008BEC90E30E94E739F70181937F01CF5F8D
:101DF000EFCF1F930F931F92CF9382E196E09F93B3
:101E00008F9387E791E39F938F930E94F2418DB761
:101E10009EB708960FB6F8949EBF0FBE8DBF8C2F4D
:101E2000DF91CF911F910F91FF90EF90DF90089578
:101E30001F93CF93DF93EC0168E670E08BEC90E3A7
:101E40000E94BC3A70E060E08BEC90E30E941E03BD
:101E50008BEC90E30E94373B42E168E68BEC90E329
:101E60000E94343B8BEC90E30E94E7398F770E940D
:101E700082048A838BEC90E30E94E7390E948204FB
:101E80008B838BEC90E30E94E7398F730E9482046E
:101E90008C838BEC90E30E94E7398BEC90E30E94FB
:101EA000E7390E9482048D838BEC90E30E94E7392E
:101EB0000E9482048E838BEC90E30E94E7390E949B
:101EC00082048F831AE08BEC90E30E94E739115073
:101ED000D1F78BEC90E30E94E7398887DF91CF91AF
:101EE0001F9108952F923F924F925F926F927F922F
:101EF0008F929F92AF92BF92CF92DF92EF92FF921A
:101F00000F931F93CF93DF938DED97E10E94180FEE
:101F100080E396E09F938F930E94910385EF94E076
:101F20009F938F930E9491030F900F900F900F90AB
:101F3000C0E081E2482E83E1582E9FE5892E96E08D
:101F4000992E20E8222E26E0322E06E716E03CE805
:101F5000E32E36E0F32E4CE4C42E46E0D42E55E5B5
:101F6000A52E56E0B52E6EE2662E66E0762E5F92C6
:101F70004F920E9491030F900F90C23009F472C0EB
:101F800008F051C0CC2309F45BC0C13009F463C030
:101F900090E080E00E94FD08D82F8B3209F4F4C055
:101FA0008D3209F415C18D3099F77F926F920E949E
:101FB00091030F900F90DD30D1F6CF5FC630B8F2AD
:101FC0008DED97E10E943F0888E996E09F938F93FB
:101FD0000E9491038BEA96E09F938F930E94910356
:101FE0008DED97E10E94A50489E398E09F938F937C
:101FF0000E9491030F900F900F900F900F900F90F1
:10200000DF91CF911F910F91FF90EF90DF90CF90D4
:10201000BF90AF909F908F907F906F905F904F9008
:102020003F902F900895C43059F118F1C53009F050
:10203000AFCFFF92EF920E9491038091DF1706C00D
:10204000DF92CF920E9491038091E4170E948B044B
:102050000F900F909DCFBF92AF920E9491038091FD
:10206000E317F4CF9F928F920E9491038091E21721
:10207000EDCF1F930F930E9491038091E117E6CF5C
:102080003F922F920E9491038091E017DFCF8091C1
:10209000E4178F5F843618F48093E41786CF10928C
:1020A000E41783CFC093E31780CF8091E2178F5F4F
:1020B0008093E217E091E317E23091F490E02091F1
:1020C000E417237051F42DE130E0281739070CF0A4
:1020D0006CCF81E08093E21768CF2CE130E0F5CF40
:1020E000F0E0E25DF04F9081981798F35ECF809119
:1020F000E1178F5F883118F48093E11756CF109263
:10210000E11753CF8091E0178F5F8C3318F48093E1
:10211000E0174BCF1092E01748CF1092DF1745CF52
:102120008091E417811102C083E6B6CF8150B4CF0D
:1021300081503AC0E091E3178091E217E23049F410
:10214000813071F49091E417937009F080E0845E1F
:10215000C1CF813029F4F0E0E25DF04F8081BACF49
:102160008150B8CF8091E117813011F487E1C4CF5D
:102170008150C2CF8091E017813011F48BE3C7CF3B
:102180008150C5CF815021C0C23009F48ECF78F480
:10219000CC2309F47CCFC13009F007CF8091E3173D
:1021A0008F5F8D3008F07ECF8093E317FECEC43072
:1021B00009F4A8CF08F49BCFC53009F0F6CE809182
:1021C000DF178F5F8C3308F0A8CF8093DF17EDCE39
:1021D000C23009F4AFCF68F4CC2309F4A1CFC130E9
:1021E00009F0E3CE8091E317813009F0A1CF8CE0B4
:1021F000DBCFC43009F4BECF08F4B4CFC53009F04A
:10220000D4CE8091DF17813009F0BCCF8BE3DDCFD6
:102210002F923F924F925F926F927F928F929F92F6
:10222000AF92BF92CF92DF92EF92FF920F931F93E4
:10223000CF93DF9300D000D0CDB7DEB78983109263
:1022400008181092071884E68093FE178FEF80938A
:10225000FF178093151810921118109210181092F1
:102260000C1810920B18109202181092011810926C
:10227000FD171092FC171092FB1781E08093FA175C
:102280001092F9171092F817109203171092F51781
:102290008093F71760E086E10E94103F61E081E0E3
:1022A0000E94103F8091B0008F738093B00060E077
:1022B0008FE00E94103F61E08FE00E94D43E0E94B8
:1022C000200789E690E00E9415038F3008F095C240
:1022D00080930018809100180E94760362E08DE0E0
:1022E0000E94D43E8DE00E943E3F8C0161E08DE073
:1022F0000E94D43E61E08DE00E94103F8AE690E0AB
:102300000E9415038A83823008F01A8285E690E0E5
:102310000E941503823008F072C280930B172A8145
:10232000222309F46FC284E690E00E941503809393
:102330000F18012B09F06AC288EC96E09F938F93E7
:102340000E9491030F900F908AE38B8391E399830E
:1023500056EF852E56E0952E6CE0262E68E0362E40
:102360007DE3A72E78E0B72E08EA16E09F928F92C1
:102370002EEF36E03F932F9326E037E03F932F93E5
:102380002EE037E03F932F930E94910384E08F93D8
:102390001F9222E437E03F932F930E949103A09174
:1023A0000418B0E0119620E834E84EE150E00E94B5
:1023B00099450E943B449B01AC0160E876E988E9BD
:1023C0009BE40E9491432B013C010E9403446B015A
:1023D000072E000C880B990B0E943B449B01AC011B
:1023E000C301B2010E94244320E030E048EC52E4F3
:1023F0000E94C7440E9403447F936F93DF92CF9261
:1024000024E737E03F932F930E9491030FB6F8948F
:10241000DEBF0FBECDBF8091DD17882351F188E963
:1024200097E09F938F930E9491038DED97E10E9417
:10243000A5042091E517822F022E000C990B9F9383
:102440002F9387EB97E09F938F930E9491030F90B8
:102450000F900F900F900F900F908091DE178823B0
:1024600041F081EC97E09F938F930E9491030F902E
:102470000F9080911218882341F084EF97E09F938A
:102480008F930E9491030F900F908091DC17882307
:1024900031F03F922F920E9491030F900F90809104
:1024A0002D188823C9F080919D301F928F938091C1
:1024B0009C301F928F9380919B301F928F938091BD
:1024C0009A301F928F93BF92AF920E9491030FB6E2
:1024D000F894DEBF0FBECDBF82E798E09F938F9345
:1024E0000E9491030F900F9080910B17882309F49D
:1024F00014C289E898E09F938F930E9491030F90F4
:102500000F9080E998E09F938F930E9491030F9022
:102510000F909A81992309F403C289E898E09F9368
:102520008F930E9491030F900F9088EB98E09F93F8
:102530008F930E9491030F900F908091DC17882356
:1025400041F08AED98E09F938F930E9491030F9042
:102550000F908091E9178F938091E8178F93809166
:10256000E7178F938091E6178F9383EE98E09F9300
:102570008F930E9491030F900F900F900F900F90E8
:102580000F908091E6179091E717A091E817B0910E
:10259000E917892B8A2B8B2B09F0C5C11F930F9349
:1025A0000E9491030F900F900E94BC081F930F93FD
:1025B0000E94910380910F180F900F90853080F446
:1025C00090E001969F938F938CE099E09F938F9377
:1025D0000E9491030F900F900F900F9030E339837A
:1025E0008DE299E09F938F930E94910389E399E094
:1025F0009F938F930E94910385E499E09F938F931B
:102600000E949103809104170E94FC0786E599E0DF
:102610009F938F930E94910387E699E09F938F93F6
:102620000E94910383E799E09F938F930E94910307
:1026300080E999E09F938F930E9491030FB6F894DD
:10264000DEBF0FBECDBF80910B17811190C189E80D
:1026500098E09F938F930E9491030F900F9089E3CE
:1026600098E09F938F930E94910388E690E00E94E8
:10267000150394E0899FF0011124E95FF04F8381F5
:102680008F9382818F9381818F9380818F938FEA43
:1026900099E09F938F930E949103809100181F925D
:1026A0008F9382ED99E09F938F930E9491030FB6D1
:1026B000F894DEBF0FBECDBF80910018833069F063
:1026C0001F9283E08F9382EF99E09F938F930E94F4
:1026D00091030F900F900F900F901F930F930E94F4
:1026E00091038CE09AE09F938F930E9491030F9047
:1026F0000F900F900F903A818BE29AE0332311F004
:102700008FE29AE09F938F930E9491030F900F9016
:102710001F930F930E9491030F900F908091DD17EC
:10272000882351F084E39AE09F938F930E94910352
:102730000F900F908BE38B8380912D18882351F09D
:102740008CE49AE09F938F930E9491030F900F90D7
:102750009CE39B838AE69AE09F938F930E94910368
:102760000F900F9081E090E00E94FD0881360CF000
:1027700001C1809306188091061881341CF087509F
:102780008093061880910618298182170CF4F4C0F2
:102790003B8138173CF380910117882319F080E0C2
:1027A0000E94442D209106182D3081F0822F022E98
:1027B000000C990B9F932F9380E89AE09F938F933F
:1027C0000E9491030F900F900F900F90E0910618C8
:1027D000E353EA3008F021C10E2E000CFF0BED5040
:1027E000FC4E0C947645C0140D150D1524152715B7
:1027F00031158E15911599159C1583E069CD1092B0
:102800000B178DCD8FEF80930F1896CD853008F084
:1028100093CD3981313009F48FCD80910F188230FA
:1028200049F580910018882389F01F928F9385EED7
:102830009AE09F938F930E9491031092001880E07A
:102840000E9476030F900F900F900F908EE09BE008
:102850009F938F930E949103809104170E94FC071D
:1028600088EA96E09F938F930E9491030F900F90B8
:102870000F900F9061E080E00E94103F80910F1850
:10288000823009F496C108F066C1882309F47AC140
:10289000813009F485C160E080E00E94103F8091A2
:1028A000091890910A18892B79F090E080E00E9435
:1028B000F60683EC0E94C206809109180E94C206A7
:1028C00080910A180E94C2068091091890910A18F6
:1028D0000E94F60680910F18843008F0A1C28EE2A3
:1028E00097E10E942327882309F4ADC18EE297E186
:1028F0000E94232780930A17882309F4A4C150E07B
:1029000040E060910A1780E00E947A070E94D50893
:102910008EE297E10E942E07E9CF8CE898E0EBCD9C
:102920008CE898E0FCCD8091EA171F928F938091FC
:10293000EB171F928F938091EC171F928F938091CA
:10294000EF171F928F938091EE171F928F938091B4
:10295000ED171F928F9389EE98E09F938F930E94BB
:1029600091030FB6F894DEBF0FBECDBF1DCE8CE82D
:1029700098E06FCE8052FDCE8D3009F0F3CE0BCFB4
:102980000E9472048091041781508093051826E0FC
:10299000622E39E8E32E3AE0F32E4EE8C42E4AE0E8
:1029A000D42E809105188F5F662D0E943445909338
:1029B0000518FF92EF920E949103809105180E94E2
:1029C000FC07DF92CF920E9491030E94BC0890E026
:1029D00080E00E94FD08782E0F900F900F900F90CE
:1029E0008DE0781619F09BE17912DBCF86EA96E04C
:1029F0009F938F930E9491030F900F902DE072127E
:102A000009C0609105186093041787E690E00E9462
:102A10003E0303C08DE0809306186091061866336C
:102A20000CF0A4CC6D3009F4A1CC615360930F1865
:102A30008A81882309F4F1CE84E690E0653008F0BD
:102A400085C00E943E03E9CE0E944E0AE6CF61E0B7
:102A500080910B17811160E060930B1785E690E081
:102A6000D6CF0E94720488E690E00E941503815040
:102A7000809305188AE0D82E91EAE92E9AE0F92E83
:102A8000809105188F5F6D2D0E9434459093051835
:102A900034E0939FF0011124E95FF04F83818F931D
:102AA00082818F9381818F9380818F93FF92EF92A8
:102AB0000E9491030E94BC0890E080E00E94FD0803
:102AC000C82E0F900F900F900F900F900F908DE0E9
:102AD000C81619F09BE1C912D3CF86EA96E09F93FE
:102AE0008F930E9491030F900F902DE0C21295CF0B
:102AF00088E690E00E94150360910518861709F496
:102B00008CCF88E690E00E943E038DEA9AE09F9386
:102B10008F930E9491030F900F907FCF0E94EF0937
:102B20007CCF81E03A8138273A83632F8AE690E0B0
:102B30006ECF0E94720F71CF0E94660D882309F438
:102B40006CCF0E9454320E94213167CF0E9415033E
:102B500080930F1862CE833009F472C0843009F07C
:102B60009ACEEDEAF0E08591949190930E188093BF
:102B70000D188AE692E090930C1880930B1880E170
:102B80009DEF48C08CE19BE090930D1780930C174C
:102B900010920A181092091881E0809308187BCED1
:102BA00088E29BE090930D1780930C1780E091E0F2
:102BB00031C080910417823091F170F4882311F1B3
:102BC000813009F068CE8EE39BE090930D178093DF
:102BD0000C1780E890E01EC0843079F118F1853040
:102BE00009F059CE88E69BE090930D1780930C175F
:102BF00010920A181092091881E080930818109218
:102C0000071849CE84E39BE090930D1780930C172F
:102C100080EE91ED90930A18809309183CCE89E4D8
:102C20009BE0C0CF84E59BE090930D1780930C1739
:102C300010920A18109209182ECE80E69BE0F4CF6D
:102C400082E79BE0F1CF80910C1790910D170E94C5
:102C5000312880930A17882341F140910C17509135
:102C60000D1760910A1781E00E947A070E94D5082B
:102C700080910C1790910D170E94312880930A17AC
:102C8000833081F08EE297E10E942E078EE297E179
:102C90000E942E0780910C1790910D170E943128E9
:102CA00080930A1780910A17D6CF80910D178F93C2
:102CB00080910C178F938FE79BE09F938F930E94D7
:102CC00091030E9454320F900F900F900F9069E083
:102CD00077E18EE097E10E94340780930A17109203
:102CE0000518E091051880910917E81760F4F0E0E5
:102CF000E25FF84E80810E94C206809105188F5FC6
:102D000080930518EECF60910A17803281F4662314
:102D1000F1F240910C1750910D1782E00E947A0752
:102D20000E94D50890E080E00E946C0702C061110B
:102D3000F0CF80910A178111CACF8EEB9BE09F9351
:102D40008F930E94910360E086E10E94103F809182
:102D5000B6008F7D8093B6008091B1008160809332
:102D6000B1008091B100897F8093B1008091B00063
:102D700082608093B0008091B0008E7F8093B0001D
:102D80008091B00080648093B0008091B0008F7714
:102D90008093B000809104188093B30061E08FE0CD
:102DA0000E94D43E86EC9BE09F938F930E949103F8
:102DB0000E9454320E94BC08109280008BE08093E5
:102DC000810084E39CE0909389008093880082E0F6
:102DD00086BB61E070E080E090E00E941E3E61E012
:102DE00086E10E94103F1092F7170F900F900F90FE
:102DF0000F900F900F900F900F90DF91CF911F9138
:102E00000F91FF90EF90DF90CF90BF90AF909F9089
:102E10008F907F906F905F904F903F902F9008958C
:102E200081EA9BE09F938F930E9491030F900F90F4
:102E30001C821B8280910B1890910C182B813C8175
:102E40002817390708F079CFE0910D18F0910E1886
:102E5000E20FF31F84910E94C2068B819C81019630
:102E60009C838B83E7CFCF93DF93EC01188268E6D6
:102E700070E08BEC90E30E94BC3A8BEC90E30E94F4
:102E8000373B811136C081E0888368E670E08BECC7
:102E900090E30E94BC3A6FE070E08BEC90E30E94FC
:102EA0001E038BEC90E30E94373B41E068E68BEC1D
:102EB00090E30E94343B8BEC90E30E94E7398078EA
:102EC000898368E670E08BEC90E30E94BC3A6EE088
:102ED00070E08BEC90E30E941E0370E060E08BECEE
:102EE00090E30E941E038BEC90E3DF91CF910C9452
:102EF000373BDF91CF910895CF92DF92EF92FF920F
:102F00000F931F93CF93DF93CDB7DEB766970FB6BE
:102F1000F894DEBF0FBECDBF61E086E10E94D43ED3
:102F200060E086E10E94103F61E080E00E94D43EB4
:102F300061E080E00E94103F11B88FEF82B961E03C
:102F40008BE00E94103F61E08BE00E94D43E60E085
:102F500085E00E94103F61E085E00E94D43E61E080
:102F600087E00E94D43E60E086E00E94D43E62E0AA
:102F700081E00E94D43E61E081E00E94D43E61E0A5
:102F800081E00E94103F61E082E00E94D43E61E057
:102F900082E00E94103F62E083E00E94D43E61E044
:102FA0008EE00E94103F61E08EE00E94D43E62E01D
:102FB00085E10E94D43E62E084E10E94D43E62E05A
:102FC00083E10E94D43E62E082E10E94D43E61E04F
:102FD0008FE00E94D43E61E087E10E94D43E62E02F
:102FE0008AE00E94D43E60E082E00E94103F86E6C4
:102FF00090E00E9415038F3F09F46DC1809304187F
:10300000809104188A3018F089E08093041887E6CC
:1030100090E00E94150380930417863038F060E03A
:1030200087E690E00E943E031092041788E690E045
:103030000E94150324E0829FF0011124E95FF04F04
:10304000F080E180D280C38026E04F2D5E2D6D2D73
:103050007C2D87E791E30E94574064EF71E080E0A8
:1030600090E00E941E3E8BEC90E30E949C3A40E868
:103070005AE166E070E08BEC90E30E94AE3A0E9469
:10308000D92C80930117882309F495C00E94A82D9C
:103090008BE39FE00E94BD2C86EF96E09F938F9379
:1030A00086E097E09F938F9387EE9BE09F938F93AB
:1030B0008E010F5F1F4F1F930F930E94F448A801CA
:1030C00060E080E00E943F2ECF92DF92EF92FF926D
:1030D00082EF9BE09F938F931F930F930E94F4487E
:1030E000A80161E080E00E943F2E8091E9178F9354
:1030F0008091E8178F938091E7178F938091E6175F
:103100008F9380E09CE09F938F931F930F930E9477
:10311000F448A80163E080E00E943F2E0FB6F894C7
:10312000DEBF0FBECDBF8091E6179091E717A0914B
:10313000E817B091E917892B8A2B8B2B51F18091DD
:10314000EA171F928F938091EB171F928F938091B4
:10315000EC171F928F938091EF171F928F9380919E
:10316000EE171F928F938091ED171F928F938EE031
:103170009CE09F938F931F930F930E94F448A801A4
:1031800064E080E00E943F2E0FB6F894DEBF0FBED1
:10319000CDBF4EE25CE066E080E00E943F2E40E65C
:1031A00054E067E080E00E943F2E47E554E067E08E
:1031B00080E50E943F2E60E270E08BEC90E30E947D
:1031C000BC3A8BEC90E30E94373B811119C081E03F
:1031D0008093121860E270E08BEC90E30E94BC3A9E
:1031E0006CE070E08BEC90E30E941E0365E070E001
:1031F0008BEC90E30E941E038BEC90E30E94373B24
:1032000064E570E08BEC90E30E94BC3A8BEC90E3B9
:103210000E94373B811103C081E08093DC178091CD
:10322000DC17882309F459C04AE066EE77E190E0A4
:1032300080E00E94B80E8091E6179091E717A09168
:10324000E817B091E9178F3F9F4FAF4FBF4F41F441
:103250001092E6171092E7171092E8171092E917EC
:1032600088E690E00E9415038A3028F069E088E63D
:1032700090E00E943E038EE297E10E942E078EE2CC
:1032800097E10E942E070E94F13080912D1888232B
:1032900021F00E94ED030E9421318DED97E10E9403
:1032A00033178091DD17882321F08DED97E10E947F
:1032B000180F80E00E94081166960FB6F894DEBFE2
:1032C0000FBECDBFDF91CF911F910F91FF90EF9077
:1032D000DF90CF90089581E091CE86EEE82E87E1D1
:1032E000F82E10E000E0C8010E94074CF70181931E
:1032F0007F010F5F1F4F0A301105A9F79CCFEF9296
:10330000FF920F931F93CF93DF93F090DC17FF2072
:10331000D1F1142F7B01EC0164E570E08BEC90E3BC
:103320000E94BC3A6D2F70E08BEC90E30E94170373
:10333000BE0177278BEC90E30E941703412F50E0EA
:10334000B7018BEC90E30E946F3A8C01F82E61E09C
:103350008BEC90E30E94BE3ADF93CF9311271F932B
:103360000F9384E39CE09F938F9387E791E39F9370
:103370008F930E94F2418DB79EB708960FB6F894CE
:103380009EBF0FBE8DBF8F2DDF91CF911F910F91EB
:10339000FF90EF900895EF92FF920F931F93CF93BA
:1033A000DF9300D0CDB7DEB781E01B9B02C00C9449
:1033B0000A238093F117339915C696B194709093B0
:1033C000171820B12093161880911518992309F425
:1033D00032C18F3FA9F0909114189F9390911318C8
:1033E0009F931F928F931F922F9385E59CE09F934D
:1033F0008F930E9491030FB6F894DEBF0FBECDBF2E
:1034000080911618809315181092141810921318A2
:103410005E98289A4A99FECF28985E9AB19B86C0FA
:1034200082E086BB8091FC178F5F8093FC179091A0
:103430002D18992319F091E0909303178A3008F41E
:103440005EC01092FC178091FB178F5F8093FB1773
:103450000BB155985D9A18B13F98479A82E090E079
:103460000E94573E89B185FB882780F991E0892722
:103470008093F61705FD02C00C940E235D9A559AB1
:10348000379905C08091F61782608093F61717FD73
:1034900002C00C94112347983F9A8091F617882315
:1034A00019F080E80E94442D8091F817813011F0C6
:1034B0000C9414230E9408111092F8178091FB17A6
:1034C0008A30E8F01092FB170E94642D8091F51766
:1034D0008823A9F09091F017992311F40C943323C9
:1034E0009091F117992311F40C9433231092F21751
:1034F0008F778093F3171092F1171092F017809145
:103500000718882399F08091FD17865F8093FD1737
:103510009091FE17891750F01092FD1781E080936B
:103520000118809102188260809302180E94A208FC
:10353000882389F080910818813069F49091FA17F6
:10354000992349F08093011880910218816080933B
:1035500002181092FA1780910118882379F080914F
:1035600015188D3059F08091FF1790910018981719
:1035700011F08F3F19F429981092011880910117CA
:10358000882381F08091FD169091FE16823091057E
:1035900011F40C94B42310F00C94A323019711F4AC
:1035A0000C94B0231092FE161092FD1680912D18E7
:1035B0008823C1F180E00E944A3910E000E08823AE
:1035C00081F080914624909147249A5F209148246D
:1035D00030914924821B930B60E076E00E944045C5
:1035E0008C0181E00E944A39882389F080917930EA
:1035F00090917A309A5F20917B3030917C30821BA1
:10360000930B60E076E00E944045080F191F8091FF
:103610000317811103C00536110520F0109203171E
:103620000E9454320F900F90DF91CF911F910F9114
:10363000FF90EF9008958E3408F0C6C4E82FF0E0B4
:10364000EC5DF44E0C947645721B901BE41FA01B9E
:10365000BE1BCE1BDC1BEA1BF81B061C241C511CCA
:10366000651CBF1CD81CE11CE71CEB1C7A1DE41F69
:10367000E41FE41FE41FE41FE41FE41FE41FE41F32
:10368000E41FE41FE41FE41FE41FE41FE41FE41F22
:10369000E41FE41FE41FE41FE41FE41FE41FE41F12
:1036A000E41FE41FE41FE41FE41FE41FE41FE41F02
:1036B000E41FE41FE41FE41FE41FE41FE41FE41FF2
:1036C000E41FE41FE41FE41FBD1DC41DFC1D0A1EF2
:1036D0002E1EC61ED01EE41FE41FF41E1D1F441F15
:1036E000981FB81F60E020FF61E08DE00E94103F4E
:1036F000809115188A3009F48BCE8C3009F488CE6D
:103700009FEB980F923008F483CE843409F480CE76
:103710008954853008F47CCE8FEF8093151878CECD
:10372000622F87E791E30E940A4080912D18882339
:10373000F9F2809133186091161881FFD9CF2CC30C
:103740002093F11680911218882309F445C260E293
:1037500070E08BEC90E30E94BC3A62E170E08BEC8D
:1037600090E30E941E03609116188BEC90E30E9478
:10377000403A8BEC90E30E94373BBACF2093F0168F
:1037800080911218882309F427C260E270E08BEC64
:1037900090E30E94BC3A63E170E0E1CF809112189F
:1037A000882309F419C260E270E08BEC90E30E9478
:1037B000BC3A70E060E0D3CF80911218882309F4FE
:1037C0000BC260E270E08BEC90E30E94BC3A61E0D7
:1037D00070E0C5CF80911218882309F4FDC160E222
:1037E00070E08BEC90E30E94BC3A6CE070E0B7CFE5
:1037F00080911218882309F4EFC160E270E08BEC2D
:1038000090E30E94BC3A6DE070E0A9CF80E12436DD
:10381000C0F480910417805D80931401822F6AE0C8
:103820000E94344590E3980F90931601205D36EF87
:10383000839F200D11242093170182E191E00E94C3
:1038400031288093060154CF809113189091141859
:10385000422F50E0009751F45093081740930717F8
:103860000196909314188093131842CF2091071754
:10387000342F30930817209307174091061721150E
:10388000324040F4403248F4109206012FEF20936A
:103890001518E6CF21E1403208F022E1209306011D
:1038A000F5CF20930617809107179091081781157F
:1038B000924028F4203238F41092060119CF81E1A9
:1038C000203208F4BECF82E1BCCF809113189091D2
:1038D0001418892BD1F4809107179091081781153E
:1038E000A2E09A0790F420910617203270F43091EC
:1038F000060131110AC055E0880F991F5A95E1F76A
:10390000822B0E946C078093060180910601811131
:1039100031C0809113188F71E82FF0E0E25FF84E0C
:103920009091161890838F3129F565E077E18EE04C
:1039300097E10E944D078093060180910517803220
:1039400018F483E180930601809113189091141864
:103950008F3F914078F080910601811108C065E0A9
:1039600077E190E080E00E944D07809306018FEFA1
:1039700080931518809113189091141871CF2F30DF
:1039800050F45C9A80911618809300185C988FEF21
:1039900080931518ADCE1F922F9380EA9CE09F93E1
:1039A0008F930E9491030F900F900F900F90EFCF85
:1039B000822F817080930818269521702093071814
:1039C00097CE222309F408C12093FE1791CE2170CF
:1039D0002093F9178DCE80911218882309F4FCC02A
:1039E00081E080931118211180E08093101860E22B
:1039F00070E08BEC90E30E94BC3A62E170E08BECEB
:103A000090E30E941E0360911018660F656070E0DD
:103A10008BEC90E30E941E038BEC90E30E94373BFB
:103A200060E270E08BEC90E30E94BC3A70E060E0F2
:103A30008BEC90E30E941E0368EF70E08BEC90E348
:103A40000E941E038BEC90E30E94373B60E270E023
:103A50008BEC90E30E94BC3A61E070E08BEC90E369
:103A60000E941E0370E060E08BEC90E30E941E0356
:103A70008BEC90E30E94373B60E270E08BEC90E3CC
:103A80000E94BC3A6CE070E08BEC90E30E941E0355
:103A90006FEF70E08BEC90E30E941E038BEC90E3E1
:103AA0000E94373B10911018110F60E270E08BEC10
:103AB00090E30E94BC3A62E170E08BEC90E30E94DC
:103AC0001E03612F61608BEC90E30E94403A8BEC07
:103AD00090E30E94373B60E270E08BEC90E30E9441
:103AE000BC3A62E170E08BEC90E30E941E03612F10
:103AF00065603BCE80911118882309F46DC060E2A7
:103B000070E08BEC90E30E94BC3A63E170E08BECD8
:103B100090E30E941E03609116188BEC90E30E94C4
:103B2000403A8BEC90E30E94373B10911018110F34
:103B300060E270E08BEC90E30E94BC3A62E170E0DE
:103B40008BEC90E30E941E03612F6C6F8BEC90E373
:103B50000E94403A8BEC90E30E94373B60E270E0B9
:103B60008BEC90E30E94BC3A62E170E08BEC90E356
:103B70000E941E03612F6D6FF8CD81EF820F803F91
:103B800058F12093FF17B4CD809113189091141819
:103B90008A30910508F5FC01EE50F94E208301961C
:103BA000909314188093131883309105C1F4809179
:103BB000F216811111C08091F31680930017809145
:103BC000F4168093FF1682E090E09093FE168093A7
:103BD000FD168FEF809315188091151891CD8130C7
:103BE000910509F0CFC52091F2162130A9F79093E5
:103BF000FE168093FD16CBCE222349F02093FC16AF
:103C000083E090E09093FE168093FD1671CD82E0E4
:103C100090E0EDCF223078F4209302171F922F937B
:103C200089EB9CE09F938F930E9491030F900F90DC
:103C30000F900F905DCD1F922F9380ED9CE09F938E
:103C40008F9387E791E39F938F930E94F2410F90A8
:103C50000F900F900F900F900F904ACD8091021708
:103C6000482F50E0823008F085C020FF17C083E362
:103C70009CE0489FF001499FF00D589FF00D1124E2
:103C8000E25DF74E8681882349F0168283EF9CE03F
:103C90009F938F930E9491030F900F908091021732
:103CA00003E31CE0809FF001819FF00D1124E25D91
:103CB000F74E9581209116184091131850911418C1
:103CC000452BE9F4922B95831F928F931F929F931C
:103CD0001F922F9388E19DE09F938F930E94910301
:103CE0008091131890911418019690931418809352
:103CF00013180FB6F894DEBF0FBECDBFF9CC322F2C
:103D000030959323958323FF17C00E944A39811170
:103D100013C020910217209FC001219F900D1124F4
:103D2000825D974EFC01E65EF34F885E934FDC01A7
:103D30008D919C9191838083809102171F928F9324
:103D400023E33CE0829FF001839FF00D1124E25DAC
:103D5000F74E85811F928F93809116181F928F9333
:103D600082E59DE09F938F930E9491038FEF809354
:103D70001518BFCF1F928F938CE89DE09F938F9370
:103D80000E9491038FEF8093151850CF80912D18CA
:103D9000882309F421CF622F80E00E947439A8CCD7
:103DA00080912D18882309F417CF622F81E00E949B
:103DB00074398091662481FF9BCC809116181F92E4
:103DC0008F9380E595E09F938F9387E791E39F938F
:103DD0008F930E94F241809133180F900F900F90B3
:103DE0000F900F900F90A7CC8091F116409113186F
:103DF00050911418452B31F4282B2093F11681E0B3
:103E000090E02FCD209582238093F1168FEF809341
:103E1000151880911218882309F4DECE60E270E054
:103E20008BEC90E30E94BC3A62E170E08BEC90E393
:103E30000E941E036091F11698CC8091F01640917B
:103E4000131850911418452B21F4282B2093F016A9
:103E5000D6CF209582238093F0168FEF809315188C
:103E600080911218882309F4B7CE60E270E08BECE1
:103E700090E30E94BC3A63E170E08BEC90E30E9417
:103E80001E036091F01671CC809113189091141854
:103E9000892B29F42093F4171092F517B0CF909145
:103EA000F417822F8095891332C08093F5178F778E
:103EB0008093F3171092F2171092F1171092F017E7
:103EC000FAE08F9FC00111249F938F9381EB9DE0B7
:103ED0009F938F930E9491030F900F900F900F90DC
:103EE0008091F317882381F08091F51787FF09C02F
:103EF0008DEC9DE09F938F930E9491030F900F9004
:103F000046CD8AEE9DE0F6CF8EEF9DE0F3CF1F9277
:103F10002F931F929F938BE09EE09F938F930E941D
:103F200091030F900F900F900F900F900F902FCD47
:103F30008091131890911418009731F430E0309369
:103F4000DB172093DA178CCC8130910551F4409126
:103F5000DA175091DB17522B5093DB174093DA1787
:103F60007FCC213818F42093D91790CC20E8FBCFD0
:103F700080911318909114188038910520F4FC0159
:103F8000E85AF84E208301969093141880931318E2
:103F90004091D9174817190609F01ECE68E577E158
:103FA0008091DA179091DB170E947F198093D817C0
:103FB0002091DA173091DB17820F932F911D909388
:103FC000DB178093DA17E3CC1F928F931F922F9306
:103FD0008FE29EE09F938F930E9491038FEF8093D7
:103FE000151835CE34990FC386B184708093171895
:103FF00010921618882309F44EC08FEF809316187C
:1040000087E791E30E94673F181619060CF587E7CA
:1040100091E30E94843F809316181092031861E088
:1040200081E00E94103F809102188E7F80930218D9
:1040300081E08093FA178FEF81B98091161882B9C9
:104040005E98289A4A99FECF11B88FEF82B9E4C9D9
:104050008091441E9091451E2091421E3091431E36
:1040600028173907A1F02091331821FF10C0FC0157
:10407000E25DF74E248920931618019660E076E001
:104080000E9440459093451E8093441EC6CF81E018
:1040900080930318C4CF80911518893809F429C278
:1040A00008F04DC0843809F487C1D0F5813809F48F
:1040B0004FC198F4803809F448C11F928F9383EB65
:1040C0009EE09F938F9387E791E39F938F930E9446
:1040D000F2418FEF8093151831C2823809F45EC126
:1040E000833859F70E94A20850E0811154E0909162
:1040F000DD17892F90E0880F991F60910B17209191
:10410000031848E0211101C040E02091F91770E147
:10411000279F90011124822B862B852B842B78C01E
:10412000863809F492C108F48DC1873809F4DCC1DE
:10413000883819F687E791E30E949E3F69C0833C67
:1041400009F415C208F077C0803C09F4D9C158F5CC
:104150008A3809F0B2CF80911118882309F467C01A
:1041600060E270E08BEC90E30E94BC3A62E170E0A8
:104170008BEC90E30E941E038BEC90E30E94373B94
:1041800060E270E08BEC90E30E94BC3A41E060E2B8
:104190008BEC90E30E94343B8BEC90E30E94E73978
:1041A000887F816035C0813C09F4DEC1823C09F022
:1041B00084CF11E02091752A3091762A8091772A58
:1041C0009091782A2817390709F410E081E00E94BD
:1041D0004A39880F812B90911618892B880F880FE8
:1041E0008093161811E02091421E3091431E809159
:1041F000441E9091451E2817390709F410E080E00D
:104200000E944A39880F982F912B80911618892B7C
:104210008093161880911518982F9D7F943809F473
:104220000ACF873C09F407CF893C09F404CF8FEF0C
:104230008093151800CF873C09F4BCC108F040C03A
:10424000843C09F03ACF8FEF809316188091772A3B
:104250009091782A2091752A3091762A281739076B
:1042600031F3FC01EB58FB4D208120931618019689
:1042700060E076E00E9440459093782A8093772A08
:104280008091662481FFD3CF1F922F9380E595E024
:104290009F938F9387E791E39F938F930E94F241BF
:1042A000809133180F900F900F900F900F900F90F8
:1042B00081FFB0CF6091161880E00E947439AACFB8
:1042C000883C09F49DC1893C09F0F7CE8091131810
:1042D00090911418892B99F48091D917813818F08E
:1042E00080E88093D9174091D91768E577E18091EC
:1042F000DA179091DB170E94B80E8093D81780913F
:104300001318909114188038910530F4FC01E85A84
:10431000F84E2081209316180196909314188093DC
:1043200013182091D9172817190609F073CF809117
:10433000D8172091DA173091DB17820F932F911D38
:104340009093DB178093DA1779C08091F61760CFCE
:1043500080911218882309F46ACF60E270E08BEC38
:1043600090E30E94BC3A62E170E08BEC90E30E9423
:104370001E038BEC90E30E94373B60E270E08BEC15
:1043800090E30E94BC3A41E060E28BEC90E30E9433
:10439000343B8BEC90E30E94E7393ACF80911218BE
:1043A000882309F444CF60E270E08BEC90E30E9434
:1043B000BC3A63E170E0D9CF8091DD178823F1F139
:1043C0008091131890911418892B21F48DED97E1A9
:1043D0000E94180F8091131890911418873091053E
:1043E00008F018CF2091E21783309105E9F068F4C6
:1043F0002091E01781309105B9F02091E1178230CA
:10440000910591F02091DF170FC02091E4178530BE
:10441000910551F02091E3178530910528F0209106
:10442000E5178630910571F7209316180196909341
:10443000141880931318079709F0ECCE8FEF809330
:104440001518E8CE80910601E3CE80911318909163
:104450001418892BD1F480910717909108178115B2
:10446000A2E09A0790F420910617203270F4309160
:10447000060131110AC035E0880F991F3A95E1F71E
:10448000822B0E946C0780930601809106018111A6
:104490001EC0109113181F7199F469E077E18EE046
:1044A00097E10E94340780930601809109178032BA
:1044B00018F483E18093060180910601811107C001
:1044C000E12FF0E0E25FF84E808180931618809132
:1044D0001318909114188F3FB1E09B0708F484C023
:1044E0002FEF2093151880C08EE297E10E942327BA
:1044F0008FCE8091021880931618109202188ACEDF
:1045000080910217482F50E08230F8F423E33CE01A
:10451000429FF001439FF00D529FF00D1124E25D88
:10452000F74E9581909316181F928F931F929F9329
:104530008DE69EE09F938F930E9491030F900F90C2
:104540000F900F900F900F9065CE1F928F938EE873
:104550009EE09F938F9387E791E39F938F930E94B1
:10456000F24110921618EACF8091001851CE8FEFC9
:10457000809316188091441E9091451E2091421EF2
:104580003091431E2817390709F451CE2091331872
:1045900021FD4DCEFC01E25DF74E248920931618D3
:1045A000019660E076E00E9440459093451E80931E
:1045B000441E30CE80911318909114182091021748
:1045C00030E043E35CE0249FF001259FF00D349F31
:1045D000F00D11248430910568F4E80FF91FE65BB3
:1045E000FB4D208120931618019690931418809308
:1045F000131810CEE25BFB4D20812093161870CF6C
:104600008091D81705CE299A5E98289A4A99FECFAC
:104610000C940C1A8093F0170C940E1A5D980C945D
:104620003F1A479A0C944C1A823061F40E94D703C7
:104630008AEE9EE09F938F930E9491030F900F90BC
:104640000C945C1A833031F481E08093071886EF74
:104650009EE0F0CF843011F00C945C1A1092071891
:104660008EEF9EE0E7CF8091F2178F5F8A3020F4C3
:104670008093F2170C947F1A1092F2178091F3171F
:1046800081508093F31781110C947F1A8091E61763
:104690009091E717A091E817B091E9170196A11D35
:1046A000B11D8093E6179093E717A093E817B09396
:1046B000E9178DED97E10E94180F8091DF17809325
:1046C000EA178091E0178093EB178091E1178093B0
:1046D000EC178091E2178093ED178091E317809398
:1046E000EE178091E4178093EF178091DC178823F1
:1046F00091F04AE066EE77E190E080E00E947F1959
:104700008091F51787FF1CC080E00E94081110926D
:10471000F5170C947F1A86EEE82E87E1F82E10E04C
:1047200000E01A830983F70161917F01CE010196B0
:104730000E9425030F5F1F4F0A30110591F7E0CF4C
:104740000E94D703E4CF83309105B1F0049711F0B4
:104750000C94D21A8091FC160E94442D0C94D21A0B
:104760000E94A82D0C94D21A6091FF168091001718
:104770000E94312D0C94D21A8091FC160E94DD2DDE
:104780000C94D21A029711F00C94081A8091F21628
:10479000823009F021CA84E090E09093FE16809365
:1047A000FD168091F3168093FC16F1C88EBD0DB4F2
:1047B00007FEFDCF08958FEF0E94D6238EB5089592
:1047C000FF920F931F93CF93DF93C82FD42F152FF2
:1047D000062FF72E8091261881113FC083E58CBDEE
:1047E0001DBCC7FF09C040E050E0BA0187E70E9446
:1047F000E023823060F5CF7761E084E00E94103FD3
:104800000E94DB2360E084E00E94103F0E94DB23D3
:104810008C2F0E94D6238F2D0E94D623802F0E949A
:10482000D623812F0E94D6238D2F0E94D62385E97F
:10483000C03421F087E8C83409F081E00E94D62313
:10484000CAE00E94DB2387FF02C0C150D1F7DF918D
:10485000CF911F910F91FF90089580E58CBD81E06D
:104860008DBDBFCF0F931F93CF93DF93C0912418BB
:10487000D09125182197CD3F8FEFD80721F080E008
:104880000E94D623F7CF0E94DB238F71853079F009
:10489000D1E0C0E061E084E00E94103F0E94DB2391
:1048A0008D2F9C2FDF91CF911F910F91089508E8D4
:1048B00013E1C4EFD1E00E94DB238F3F49F00115E3
:1048C000110531F3CE010197F1F701501109F3CF32
:1048D000D1E0C0E0012BF1F2D0E0DCCFAF92BF928B
:1048E000CF92DF92EF92FF920F931F93CF93DF93BC
:1048F00000D000D0CDB7DEB780912618882339F0DC
:1049000084E00E943E3F892B11F40E94322461E032
:1049100084E00E94103F61E084E00E94D43E61E0A8
:1049200085E00E94D43E61E087E00E94D43E61E0D1
:1049300084E00E94D43E83E58CBD1DBC61E084E030
:104940000E94103F1AE00E94DB231150E1F740E083
:1049500050E0BA0180E40E94E023182F8130D9F0A2
:1049600010E01093261861E084E00E94103F0E943E
:10497000DB2381E0111180E00F900F900F900F90DA
:10498000DF91CF911F910F91FF90EF90DF90CF902B
:10499000BF90AF9008954AEA51E060E070E088E48B
:1049A0000E94E023813079F5CE0101967C016E01F1
:1049B00095E0C90ED11C87010E94DB23F801819389
:1049C0008F01CE16DF06C1F78B81813049F68C81CD
:1049D0008A3A31F620E1C22E27E2D22E34EFA32EFE
:1049E000BB24B39440E050E060E070E489EE0E94A4
:1049F000E023882359F1C5010197F1F7F1E0CF1ABF
:104A0000D10881F7ADCF40E050E0BA0189EE0E94B5
:104A1000E02301E4823010F412E009EE80E1E82E98
:104A200087E2F82E94EFC92EDD24D39440E050E0C5
:104A3000BA01802F0E94E0238823F1F0C60101977C
:104A4000F1F7F1E0EF1AF10889F78ACF40E050E082
:104A5000BA018AE70E94E023811182CF0E94DB2302
:104A6000F70181937F010E171F07C1F789811CE0B1
:104A700086FD77CF14E075CF40E052E060E070E053
:104A800080E50E94E023882309F46BCF69CFCF92A1
:104A9000DF92EF92FF920F931F93CF93DF937C01EE
:104AA00069018091261883FD07C089E0440F551FD6
:104AB000661F771F8A95D1F781E50E94E023811157
:104AC00008C0C0E4DCE90E94DB238F3F29F4219772
:104AD000D1F7C1E0D0E022C08E3FD9F7C2E0D2E0EA
:104AE000C01BD10BCC19DD0981E0C81AD10818F020
:104AF0000E94DB23F9CFE114F10401F10E0D1F1D1B
:104B00000E94DB23F70181937F010E171F07C1F776
:104B10000E94DB232197E1F7D0E0C0E061E084E070
:104B20000E94103F0E94DB23CE01DF91CF911F91A5
:104B30000F91FF90EF90DF90CF9008950E94DB23BC
:104B400001501109D9F7E4CFEF92FF920F931F9311
:104B5000CF93DF930097C9F0EA018C012097B1F160
:104B6000E0902418F0902518E114F10479F1F8018F
:104B700081918F010E94D623F1E0EF1AF108F092A3
:104B80002518E09224182197E9CF411551056105B8
:104B9000710529F18091261883FD07C089E0440F33
:104BA000551F661F771F8A95D1F788E50E94E0237D
:104BB00081111DC08FEF0E94D6238EEF0E94D62355
:104BC00080E092E0909325188093241890E080E094
:104BD000DF91CF911F910F91FF90EF900895DF919A
:104BE000CF911F910F91FF90EF900C94322481E0B0
:104BF00090E0EECF0F931F93E0912718F0912818C3
:104C00009B01AC01225031094109510986819781EC
:104C1000A085B1850297A109B109281739074A076C
:104C20005B0778F4A281B0E00E948E450289138967
:104C300024893589600F711F821F931F1F910F9167
:104C4000089560E070E0CB01F9CF0F931F93CF93ED
:104C5000DF93EC01E0912718F0912818198218824F
:104C60006C817D818E819F81613071058105910507
:104C700081F10681178120853185601771078207D0
:104C8000930738F5611571058105910539F4208187
:104C9000233021F4668577858089918968877987B3
:104CA0008A879B87611571058105910569F00E94CE
:104CB000FA256C877D878E879F8790E080E0DF9163
:104CC000CF911F910F91089566857785808991898D
:104CD000F0CF81E090E0F3CF0F931F93CF93DF935A
:104CE00000D000D0CDB7DEB76230710581059105E7
:104CF00028F461E070E080E090E055C0E091271872
:104D0000F091281806811781208531856017710779
:104D10008207930770F7AB01BC018081823031F1CB
:104D2000833039F79A012F773327220F331F220F51
:104D3000331F97E076956795579547959A95D1F7E4
:104D400082859385A485B585480F591F6A1F7B1FEF
:104D500004E010E0CE0101960E944725892B49F618
:104D600069817A818B819C819F701DC09A01332754
:104D7000220F331F452F562F672F77278285938564
:104D8000A485B585480F591F6A1F7B1F02E010E0FC
:104D9000CE0101960E944725892B09F0AACF69818F
:104DA0007A8190E080E00F900F900F900F90DF914C
:104DB000CF911F910F910895CF92DF92EF92FF92C2
:104DC0000F931F93CF93DF93EC016A017B0102E005
:104DD00010E02EEF31E00E944725892B31F58881C4
:104DE000998185359A4A59F526E330E0B701A60145
:104DF000CE010E944725892B29F488819981863428
:104E0000914489F002E010E022E530E0B701A6010C
:104E1000CE010E944725892BA1F481E028813981A8
:104E20002634314419F480E001C083E0DF91CF9152
:104E30001F910F91FF90EF90DF90CF90089582E047
:104E4000F5CF81E0F3CF2F923F924F925F926F9216
:104E50007F928F929F92AF92BF92CF92DF92EF920A
:104E6000FF920F931F93CF93DF93CDB7DEB7A49735
:104E70000FB6F894DEBF0FBECDBF1C0110922818EC
:104E8000109227180E946E2480FDC3C040E050E0BD
:104E9000BA01CE0101960E94DC26412C512C320130
:104EA0008130C1F500E110E02EEB31E040E050E050
:104EB000BA01CE0101960E944725892BD9F081E0E5
:104EC00090E0A4960FB6F894DEBF0FBECDBFDF9181
:104ED000CF911F910F91FF90EF90DF90CF90BF90F7
:104EE000AF909F908F907F906F905F904F903F908A
:104EF0002F9008958D81811103C086E090E0E1CF6D
:104F000049845A846B847C84B301A201CE0101964A
:104F10000E94DC26833099F28111EFCF04E210E089
:104F20002DE030E0B301A201CE0101960E94472599
:104F3000892B29F62A853B8550E040E02115310573
:104F40004105510521F4288D398D4A8D5B8DAC8149
:104F5000B0E00E948E454B015C014A815B8170E0AC
:104F600060E0440E551E661E771EF1014286538690
:104F70006486758629812283CD80DE80D582C482B5
:104F80008F819885B0E0A0E00097A105B10521F4DC
:104F90008C899D89AE89BF8934E0D694C7943A95AF
:104FA000E1F7F12CE12C841B950BA60BB70BBC0190
:104FB000CD01681979098A099B096C197D098E0947
:104FC0009F0930E050E040E00E945445DA01C901F9
:104FD0000296A11DB11DF10186839783A087B18739
:104FE000265F3F40410951092F3F3F4E4105510582
:104FF00098F0873F9F4FA105B10598F47ECF82E0DE
:10500000F1018083D301C201880D991DAA1DBB1D2A
:105010000FC082E090E055CF873F9F4FA105B105BB
:1050200070F383E0F101808388A199A1AAA1BBA1BB
:1050300086879787A08BB18BC40CD51CE61CF71C08
:10504000C80CD91CEA1CFB1CF101C28AD38AE48A71
:10505000F58A1182309228182092271890E080E07B
:1050600030CF4F925F926F927F928F929F92BF92BA
:10507000CF92DF92EF92FF920F931F93CF93DF9324
:10508000CDB7DEB7EC970FB6F894DEBF0FBECDBF3D
:10509000C0902718D0902818C114D10409F40DC16C
:1050A000F60111829E012F5C3F4F3CA32BA39C0174
:1050B0007901F90180812F5F3F4F8032C9F38F3230
:1050C00009F479011DA21EA21FA218A6F701808172
:1050D000A0E2BA2E803208F0DDC0CE0181960E9497
:1050E00025261982009709F410C1EC960FB6F894A2
:1050F000DEBF0FBECDBFDF91CF911F910F91FF900B
:10510000EF90DF90CF90BF909F908F907F906F90A7
:105110005F904F90089520E0E0E088E0D8C0E30E73
:10512000F11C81E0913208F080E01B968C93CE0157
:1051300081960E9425260097C1F629A13AA12F70D9
:105140003327F5E0220F331FFA95E1F74DA55EA551
:105150006FA578A900E210E0CE0101960E944725D4
:10516000892B19F081E090E0C0CF8981811103C0C3
:1051700083E090E0BACF8C8583FD13C00BA11CA106
:105180009E012F5F3F4FD801B801655F7F4F6A17BF
:105190007B0709F4B5C0F90141919F019D91491721
:1051A000B1F309A11AA10F5F1F4F11F38DA59EA5A1
:1051B000AFA5B8A90097A105B105D1F298012F704C
:1051C0003327232BD9F48090271890902818019624
:1051D000A11DB11D8DA79EA7AFA7B8AB69A57AA5E4
:1051E0008BA59CA5F401611571058105910549F414
:1051F000848195810817190708F0BACF1AA309A36B
:105200009CCF2281E22FE150FF0BAF019801E4E037
:1052100036952795EA95E1F724233523232B71F75B
:105220000E946C26623071058105910508F49ACFC1
:10523000F401468057806084718464157505860585
:10524000970508F095CF69A77AA78BA79CA70E941E
:10525000FA256DA77EA78FA798ABD0CF84FF88CF04
:10526000E0912718F091281880818330F1F48D891E
:105270009E89B0E0A0E0DC01992788274B8D5C8DEA
:1052800070E060E0842B952BA62BB72B8DA39EA3FB
:10529000AFA3B8A7ABA1BCA1FD01CD010B968E17A2
:1052A0009F0709F438CFB192FACF80E090E0DC019B
:1052B000E5CF80E090E0DC013DC085E090E015CFD7
:1052C000883009F02CCF9BE0282FE32F892F31E085
:1052D0003E0FEE0DFF2DF11D9081913208F41FCF8E
:1052E0009F3209F41CCF9E3259F3281708F017CFCC
:1052F000FD01E20FF11D9083982F81E0820FE4CF32
:10530000F8019385992309F4A9CF8981882309F4A9
:105310002FCF8C8584FD2CCFE0912718F091281891
:105320008081833031F68D899E89B0E0A0E0DC0178
:10533000992788274B8D5C8D70E060E0842B952B3E
:10534000A62BB72BF601868F978FA0A3B1A38D8DC7
:105350009E8DAF8DB8A1828F938FA48FB58F168A43
:10536000178A108E118E81E0818390E080E0BDCE9F
:105370004F925F926F927F928F929F92AF92BF9265
:10538000CF92DF92EF92FF920F931F93CF93DF9311
:105390004C017B013A01C0912718D0912818FA01DD
:1053A0001182108285E090E0209709F44BC089813A
:1053B00080FFAAC08A8D9B8DAC8DBD8D4E895F8983
:1053C000688D798D841B950BA60BB70BA70170E038
:1053D00060E084179507A607B70708F47C0154011D
:1053E000412C32E0532EE114F10409F490C08E896F
:1053F0009F89A88DB98DAC01BD01517066277727B3
:10540000452B462B472B09F04CC0DA80DA94AC01CF
:10541000BD0129E076956795579547952A95D1F76F
:10542000D42261F5892B8A2B8B2BE9F46E8D7F8D2D
:1054300088A199A16230710581059105D8F419827E
:1054400081E090E0DF91CF911F910F91FF90EF905D
:10545000DF90CF90BF90AF909F908F907F906F9094
:105460005F904F9008956AA17BA18CA19DA10E949D
:105470006C26E0CF6AA37BA38CA39DA36AA17BA12A
:105480008CA19DA10E94FA256115710581059105E8
:10549000B1F26D0D711D811D911D6EA37FA388A7B3
:1054A00099A72E893F893170C201821B930B670136
:1054B0008E159F0508F46C014EA15FA168A579A522
:1054C000C5018114910411F480E090E086010E94EE
:1054D0004725892B09F0B3CF8E899F89A88DB98D77
:1054E0008C0D9D1DA11DB11D8E8B9F8BA88FB98F1B
:1054F000AC0CBD1CEC18FD08F30180819181C80E35
:10550000D91ED182C0826FCF84E090E09BCF90E023
:1055100080E098CF4F925F926F927F928F929F928E
:10552000AF92BF92CF92DF92EF92FF920F931F93B1
:10553000CF93DF936C018B015A01C0912718D09152
:105540002818FA011182108285E090E02097A1F0DE
:10555000898180FFE0C08074672B29F58823E9F0FA
:1055600040E050E0BA0190E080E00E94A425892B41
:10557000A1F0198281E090E0DF91CF911F910F910E
:10558000FF90EF90DF90CF90BF90AF909F908F9063
:105590007F906F905F904F90089589818F7B898372
:1055A00090E080E0E9CF81110AC08E899F89A88DA3
:1055B000B98D88279E7F8E8B9F8BA88FB98F8A8D00
:1055C0009B8DAC8DBD8D4E895F89688D798D841BD7
:1055D000950BA60BB70BA80170E060E08417950748
:1055E000A607B70708F48C01812C32E0932E011531
:1055F0001105B1F28E899F89A88DB98D9C013170FA
:10560000232B09F040C0FA80FA94AC01BD0129E0D7
:1056100076956795579547952A95D1F7F42299F491
:10562000892B8A2B8B2B09F06FC06E8D7F8D88A103
:1056300099A1623071058105910508F49ACF6AA39A
:105640007BA38CA39DA36AA17BA18CA19DA10E9499
:10565000FA25611571058105910509F48ACFAB0121
:10566000BC014F0D511D611D711D4EA35FA368A7A5
:1056700079A790E080E00E94A425892B09F079CFDA
:105680008981806489838E899F8991709401281B08
:10569000390B78012017310708F479012701712CA3
:1056A000612CB301A701C6010E94A425892B09F032
:1056B00060CF8E899F89A88DB98D840D951DA61DFB
:1056C000B71D8E8B9F8BA88FB98FCE0CDF1C0E1948
:1056D0001F09F50120813181E20EF31EF182E08283
:1056E0002C01F1E05F22452809F081CF40E050E035
:1056F000BA0190E080E00E94A425892B09F039CFFF
:1057000089818F7B898373CF6AA17BA18CA19DA1A5
:105710000E946C268ECF84E090E02ECF4F925F9255
:105720006F927F928F929F92AF92BF92CF92DF92B1
:10573000EF92FF92CF93DF9300D000D000D0CDB78F
:10574000DEB720912718309128183E832D8321152C
:10575000310509F40CC1D90111962C91119720FF44
:1057600009C15A96CD90DD90ED90FC905D976C1537
:105770007D058E059F0510F46B017C01ED81FE8196
:1057800046885788608C718C168A178A108E118E05
:10579000C114D104E104F10409F4E6C08280912C23
:1057A000B12CA12C39E0880C991CAA1CBB1C3A9581
:1057B000D1F7411451046104710409F470C0B1E0DF
:1057C0004B1A510861087108C701B601615071098F
:1057D00081099109A50194010E94544529833A83C6
:1057E0004B835C83C301B201A50194010E9454451F
:1057F00089819A81AB81BC8182179307A407B50781
:1058000008F44DC088279927DC0188199909AA094D
:10581000BB0984219521A621B721ED81FE81868BCC
:10582000978BA08FB18FC81AD90AEA0AFB0A62A126
:1058300073A184A195A18C149D04AE04BF0408F04B
:1058400058C00E946C26623071058105910568F090
:10585000AD81BE8116964D905D906D907C901997AC
:10586000641575058605970540F1ED81FE8111826D
:1058700081E090E026960FB6F894DEBF0FBECDBF54
:10588000DF91CF91FF90EF90DF90CF90BF90AF90DE
:105890009F908F907F906F905F904F900895AD8113
:1058A000BE815E966D917D918D919C919197FD0148
:1058B00062A373A384A395A3BECFAD81BE8192964C
:1058C0006D937D938D939C93959756964D905D9097
:1058D0006D907C905997480C591C6A1C7B1CFD01EB
:1058E000468A578A608E718EC818D908EA08FB0864
:1058F000A2CFAD81BE8156968D909D90AD90BC900B
:105900005997C80CD91CEA1CFB1CFD01C68AD78A12
:10591000E08EF18E0E94FA25AB01BC0141155105C4
:105920006105710529F4AD81BE8111961C92A0CF4D
:10593000ED81FE8182818150990B092E000CAA0B0A
:10594000BB0B29E0F694E794D794C7942A95D1F736
:105950008C219D21AE21BF21480F591F6A1F7B1F3B
:1059600046A357A360A771A790E080E083CF85E0AE
:1059700090E080CF84E090E07DCF90932C188093CE
:105980002B180895CF93C82F6CE370E08BEC90E355
:105990000E94BC3A60E08BEC90E30E94403A6C2F8E
:1059A0008BEC90E30E94403A8BEC90E3CF910C9407
:1059B000373B6CE370E08BEC90E30E94BC3A8BECDD
:1059C00090E30E94373B81114AC080E880932A18F7
:1059D0008EEA0E94C22C85ED0E94C22C80E80E94B3
:1059E000C22C88EA0E94C22C8FE30E94C22C83ED55
:1059F0000E94C22C80E00E94C22C80E40E94C22C33
:105A000081EA0E94C22C88EC0E94C22C8AED0E947E
:105A1000C22C82E10E94C22C81E80E94C22C80E844
:105A20000E94C22C89ED0E94C22C82E20E94C22CEC
:105A30008BED0E94C22C85E30E94C22C84EA0E9456
:105A4000C22C86EA0E94C22C8DEA0E94C22C8BE8EE
:105A50000E94C22C8FEA0E94C22C81E0089580E04F
:105A60000895CF93C2E0C80F862F8F70806B0E947D
:105A7000C22C8C2F8F700E94C22C8C2F82958F701D
:105A80008061CF910C94C22CCF9390912A189817D3
:105A9000C9F0C82F8FEA992319F0C11103C08EEA0B
:105AA0000E94C22CC0932A1881E80E94C22C8091C7
:105AB0002A180E94C22C80912A18882319F08FEF8F
:105AC00080932918CF910895809129188823A9F0EF
:105AD000815080932918811110C080912A1882303A
