:020000040000FA
:100000000C94D0020C94FA020C94FA020C94FA02AA
:100010000C94FA020C94FA020C94FA020C94FA0270
:100020000C94FA020C94FA020C94FA020C94FA0260
:100030000C94FA020C94FA020C94FA020C94FA0250
:100040000C94FA020C94FA020C94A93D0C94FA0256
:100050000C94D5400C9417410C94FA020C94FA02BB
:100060000C94FA020C94FA020C94793C0C94FA0267
:100070000C94FA020C94FA020C94FA020C94FA0210
:100080000C94FA020C94FA020C94FA024C6F61641C
:10009000696E672064656661756C74206E6574773F
:1000A0006F726B2073657474696E677300AF003193
:1000B00010FD2152FDCDC6FECD3EFFCDF4FD3EFF2D
:1000C000BC2010BD200D21D9FDCDC6FE2188FDCD5F
:1000D000C6FE76E521D9FDCDC6FE2175FDCDC6FE55
:1000E000E1CD4BFFCD3EFFCD3EFFDB01FEFF20FA11
:1000F000E9694C6F6164202D20496E74656C2D4850
:100100006578204C6F61646572202D205332303049
:10011000373138005374617274696E6720416464CA
:10012000726573733A20004C6F6164206572726F60
:1001300072202D2053797374656D2068616C74652D
:10014000640057616974696E6720696E7075742008
:1001500073747265616D2E2E2E0053796E74617802
:10016000206572726F722100436865636B73756DF1
:10017000206572726F722100694C6F61643A2000D1
:10018000416464726573732076696F6C6174696F22
:100190006E2100F5D5C501FFFF21A3FDCDC6FECD23
:1001A0003EFFCD72FFFE0D28F9FE0A28F5FE20283D
:1001B000F1CD1AFFCD69FFFE3AC2A3FECDE1FE5795
:1001C0001E00CDBEFECDD6FE3EFFB82005B92002F2
:1001D000444D7CCDBEFE7DCDBEFECDE1FECDBEFE4E
:1001E000FE01201ECDE1FECDBEFE7BA72866CD3EE2
:1001F000FF21D9FDCDC6FE21C9FDCDC6FE01FFFF01
:1002000018527AA7282CCDE1FECDBEFEE5C5A70188
:10021000F0FCED42C1E1DA8EFECD3EFF21D9FDCDED
:10022000C6FE21E1FDCDC6FE01FFFF18277723158D
:1002300018D0CDE1FECDBEFE7BA720B2CD3EFFC3E0
:1002400003FECD3EFF21D9FDCDC6FE21BBFDCDC6AF
:10025000FE01FFFFCD3EFF6069C1D1F1C9C54F7BF3
:10026000915F79C1C9F5E57EFE002806CD69FF23BF
:1002700018F5E1F1C9F5CDE1FE67CDE1FE6FF1C9F9
:10028000C5CDF4FECB07CB07CB07CB0747CDF4FE9C
:10029000B0C1C9CD72FFCD1AFFCD06FF30F5CD2319
:1002A000FFCD2EFFC9FE47D0FE3030023FC9FE3AD7
:1002B000D8FE4130023FC937C9FE61D8FE7BD0E687
:1002C0005FC9FE3A3802D607D630E60FC9F5E60F09
:1002D000C630FE3A3802C607CD69FFF1C9F53E0DBA
:1002E000CD69FF3E0ACD69FFF1C9E5F57CCD58FF28
:1002F0007DCD58FFF1E1C9F5C5470F0F0F0FCD2E8A
:10030000FF78CD2EFFC1F1C9F53E01D301F1D30035
:10031000C9DB01FEFFCA72FFC95B57353530305D5E
:10032000205735353030207265736574204F4B008F
:100330005B57353530305D205735353030207265AC
:10034000736574204552524F52005B57353530303B
:100350005D20573535303020726573657400446513
:100360006163746976617465640041637469766180
:10037000746564005B54454C4E45545D2052657075
:100380006C69656420274941432057494C4C2045FE
:1003900043484F2720746F202749414320444F2072
:1003A0004543484F2720726571756573740D0A00C7
:1003B000636C69656E742069735F74656C6E6574D7
:1003C0000D0A005B54454C4E45545D2053656E64E8
:1003D000696E672062616E6E6572206F6E20736F4A
:1003E000636B657420005B54454C4E45545D20534F
:1003F000656E64696E67206D696E692049414320AE
:100400006F6E20736F636B657420005B54454C4EB8
:1004100045545D2053656E64696E672049414320F1
:100420006F6E20736F636B657420005B54454C4E98
:1004300045545D205A6F6D6269652074696D656F02
:1004400075743A20E2869220726573657474696EE1
:100450006720736F636B657420005B54454C4E4599
:10046000545D2048616E67757020726571756573A3
:10047000743A20E2869220726573657474696E67BF
:1004800020736F636B657420005B54454C4E45547C
:100490005D20434C4F53455F5741495420E28692BB
:1004A00020434C4F5345206F6E20736F636B657410
:1004B00020005B54454C4E45545D20434C4F534502
:1004C0004420E28692204C495354454E206F6E20C2
:1004D000736F636B657420005B54454C4E45545DEF
:1004E00020446973636F6E6E656374656420736F17
:1004F000636B657420005B4552525D205735353083
:1005000030206E6F7420666F756E642120564552E0
:1005100053494F4E52203D20000000000203000AC4
:100520000B000000000504090800000000000000A6
:10053000000000000000000000010204081020403C
:1005400080010204081020408001020408102040AD
:10055000800102040810204080020202020202020E
:100560000204040404040404040303030303030354
:100570000301010101010101010000200023002607
:1005800000290000002200250028002B0000002187
:1005900000240027002A00003508663B4B41410833
:1005A00011241FBECFEFD0E4DEBFCDBF17E1A0E026
:1005B000B1E0ECECF8E900E00BBF02C007900D924F
:1005C000A030B107D9F725E3A0E0B7E101C01D9243
:1005D000A03FB207E1F712E0CFECD2E004C02197D0
:1005E000FE010E94A245CC3CD107C9F70E944043BE
:1005F0000C94594C0C9400000F931F93CF93DF93EE
:1006000008EA10E3CAE0D0E0CE010E94334CF801C2
:1006100081938F012196C134D105B1F788EA90E327
:10062000DF91CF911F910F9108950C94334CDC0111
:10063000ED91FC910190F081E02D0994DC01ED91A8
:10064000FC910190F081E02D0994FF920F931F938C
:10065000CF93DF93EC01F62E08811981C8010E9427
:10066000334CF81621F06F2DC8010E943B4CCE018F
:10067000DF91CF911F910F91FF900895CF93DF935A
:1006800000D0CDB7DEB79A838983CE0101960E9450
:1006900025030F900F90DF91CF910895EF92FF9275
:1006A0000F931F93CF93DF9300D0CDB7DEB788EAC7
:1006B000E82E80E3F82E0AE010E01A830983F701A0
:1006C00061917F01CE0101960E9425030F5F1F4FAC
:1006D0000134110591F788EA90E30F900F90DF91B4
:1006E000CF911F910F91FF90EF900895CF93DF93DB
:1006F000D82F61E082E00E943C3FCFEFC1B9D2B970
:1007000061E08CE00E94003F61E08CE00E943C3F91
:1007100060E08CE00E943C3F11B8C2B9DF91CF91FC
:100720000895CF92DF92EF92FF920F931F93CF9392
:10073000DF93CDB7DEB7D2500FB6F894DEBF0FBE51
:10074000CDBF9E01255F3D4FF901419151919F0120
:1007500060E072E08E010F5F1F4FC8010E94504998
:100760006C01B8018BE891E30E94E9418091471840
:1007700081FF0EC07801C701801B910B8C159D0570
:100780003CF4F70161917F0180E00E94A039F3CF32
:10079000DE5F0FB6F894DEBF0FBECDBFDF91CF9105
:1007A0001F910F91FF90EF90DF90CF90089560E040
:1007B00086E10E943C3F61E080E00E943C3F64E6AD
:1007C00070E080E090E00E944A3E60E080E00E949D
:1007D0003C3F61E086E10C943C3FCF93DF9300D037
:1007E00000D000D0CDB7DEB70E94FC028091DE3091
:1007F0008A3209F461C06CE870E08BE891E30E94F2
:10080000F54186E0EDE1F1E0DE01119601900D92F7
:100810008A95E1F786E0FE013196A8EAB0E30190FF
:100820000D928A95E1F720EC2093AE3098EA9093F0
:10083000AF301092B0308CE38093B1308FEF809363
:10084000B2308093B3308093B4301092B53020939F
:10085000B6309093B7301092B83091E09093B930A1
:100860001092BA301092BB301092BC301092BD3052
:1008700088E08093BE308093BF308093C0308093F7
:10088000C1309093C2309093C3309093C430909312
:10089000C53020ED37E03093C7302093C6308093C9
:1008A000C83063E271E089EC90E30E9411498AE26A
:1008B0008093DE300E944E0389EC90E3FC010190AE
:1008C0000020E9F7CF018A5C9043459710F0109221
:1008D000DD3026960FB6F894DEBF0FBECDBFDF9198
:1008E000CF9108958EE291E09F938F930E949103A0
:1008F0000F900F9008956AE00E9460458295807F76
:10090000890F0895982F92959F708F702AE0929F7B
:10091000800D11240895CF93C82F8A3040F48BE5C1
:1009200094E09F938F930E9491030F900F901F92DA
:10093000CF938BE494E09F938F930E9491030F9049
:100940000F900F900F90CF9108950F931F93CF9317
:10095000DF93EC018D810E948B040DE611E01F9363
:100960000F930E9491038E810E948B041F930F931B
:100970000E9491038F810E948B0484E393E19F93F3
:100980008F930E9491038C810E948B040FE611E0EB
:100990001F930F930E9491038B810E948B041F93DE
:1009A0000F930E9491038DB79EB70A960FB6F894E5
:1009B0009EBF0FBE8DBF8A81DF91CF911F910F9196
:1009C0000C948B04FB0123811F922F9322811F9291
:1009D0002F9321811F922F9320811F922F9321E724
:1009E00031E03F932F939F938F930E9420498DB7BF
:1009F0009EB70C960FB6F8949EBF0FBE8DBF08959C
:100A0000FB0125811F922F9324811F922F93238115
:100A10001F922F9322811F922F9321811F922F9338
:100A200020811F922F9321E831E03F932F939F93D2
:100A30008F930E9420498DB79EB740960FB6F894C9
:100A40009EBF0FBE8DBF08957F936F932BE434E05C
:100A50003F932F939F938F930E9420490F900F9065
:100A60000F900F900F900F900895BF92CF92DF924A
:100A7000EF92FF920F931F93CF93DF93C82EB62E62
:100A8000142F052FF22EE32E84E0D82EDC0C1F92BB
:100A9000DF92CDE9D3E0DF93CF930E9491030F90D3
:100AA0000F900F900F90CB1022C0EF92FF920F93F8
:100AB0001F938FE991E09F938F930E9491031F9260
:100AC000DF92DF93CF930E9491038DB79EB70A9672
:100AD0000FB6F8949EBF0FBE8DBFDF91CF911F91CF
:100AE0000F91FF90EF90DF90CF90BF900895EF921D
:100AF000FF920F931F938EEA91E09F938F930E9432
:100B000091030F900F900F900F900F900F90E5CFE3
:100B1000CF92DF92EF92FF920F931F93CF93DF93C9
:100B2000CDB7DEB7A0970FB6F894DEBF0FBECDBF2E
:100B3000E82EF62E8A01C82ED12CC60104969F936A
:100B40008F938DEB91E09F938F930E9491030F9071
:100B50000F900F900F9089E08E15E8F0F601ED549C
:100B6000FA4F0C94A245BD05DA05E905F80507061C
:100B700016062506340643065206B801CE01019634
:100B80000E9400059E012F5F3F4F48EC51E06F2D02
:100B900080E00E943505A0960FB6F894DEBF0FBE28
:100BA000CDBFDF91CF911F910F91FF90EF90DF901C
:100BB000CF900895B8016A5F7F4FCE0101960E94E1
:100BC000E2049E012F5F3F4F44ED51E06F2D81E025
:100BD000E0CFB801665F7F4FCE0101960E94E2042C
:100BE0009E012F5F3F4F4FED51E06F2D82E0D1CF3F
:100BF000B801625F7F4FCE0101960E94E2049E0120
:100C00002F5F3F4F47EE51E06F2D83E0C2CFB80119
:100C10006E5E7F4FCE0101960E94E2049E012F5F1F
:100C20003F4F4FEE51E06F2D84E0B3CFB8016A5EC5
:100C30007F4FCE0101960E94E2049E012F5F3F4F3D
:100C40004DEF51E06F2D85E0A4CFB801665E7F4F78
:100C5000CE0101960E94E2049E012F5F3F4F42E0C9
:100C600052E06F2D86E095CFF801668D778DCE012D
:100C700001960E9424059E012F5F3F4F47E052E0FE
:100C80006F2D87E086CFF80160A170E0CE0101965C
:100C90000E9424059E012F5F3F4F4BE152E06F2DD4
:100CA00088E077CF29EC30E343E252E06F2D89E012
:100CB00070CF0F931F93CF93DF93C82F8B018FE2D9
:100CC00092E09F938F930E9491038AE692E09F9314
:100CD0008F930E9491038EE992E09F938F930E94DD
:100CE00091030F900F900F900F900F900F90D0E006
:100CF000A80160E08D2F0E948805DF5FDA30C1F720
:100D000082ED92E09F938F930E9491038C2F90E04D
:100D100004969F938F9388E093E09F938F930E9414
:100D200091030F900F900F900F900F900F90DF9105
:100D3000CF911F910F9108958C5F94E0411193E042
:100D4000969F602D1124442391F0655E1F926F934E
:100D50001F928F9385EA93E09F938F930E94910354
:100D60000F900F900F900F900F900F900895645E6A
:100D7000EDCFCF93DF93D82FC0E0CD1751F061E0D6
:100D80008FE00E943C3F60E08FE00E943C3FCF5FDD
:100D9000F4CFDF91CF910895CF93DF93D82F61E007
:100DA00082E00E943C3F81E00E94B906CFEFC1B9CA
:100DB00086E382B982E00E94B90611B8C2B982E026
:100DC0000E94B906C1B9D2B982E00E94B90611B831
:100DD000C2B983E00E94B90681E00E94B906C1B998
:100DE00083E282B982E00E94B90611B8C2B983E0F9
:100DF0000E94B90660E082E0DF91CF910C943C3F05
:100E00001F93CF93DF93182FD92F61E082E00E94C8
:100E10003C3F81E00E94B906CFEFC1B981E282B9BF
:100E200082E00E94B90611B8C2B982E00E94B906F8
:100E3000C1B912B983E00E94B906D2B982E00E941A
:100E4000B90611B8C2B960E082E0DF91CF911F917D
:100E50000C943C3F60E086E10E943C3F86E00E94AB
:100E6000B90661E086E10E943C3F82E00C94B9063D
:100E70000E944F2708950E945D2808950F931F93A5
:100E8000CF93DF9300D0CDB7DEB78B01AE014F5FBC
:100E90005F4F60E270E00E94E4299981F80190833D
:100EA0000F900F90DF91CF911F910F9108950F93A5
:100EB0001F93CF93DF9300D0CDB7DEB78B01AE0188
:100EC0004F5F5F4F60E270E0009721F470E060E0F8
:100ED00090E080E00E94B62A9981F80190830F90FB
:100EE0000F90DF91CF911F910F910895B0E0A0E096
:100EF000BC01CD0129E0660F771F881F991F2A9535
:100F0000D1F70E94BA2B08950F931F93CF93DF93CD
:100F1000662309F476C08A01C62FD82F1F926F93DB
:100F20008EEA93E09F938F930E9491030F900F900E
:100F30000F900F9086ED93E0C330C1F058F483EC2E
:100F400093E0C13099F08CEC93E0C23079F083E00B
:100F500094E00CC089EE93E0C53041F08EED93E053
:100F6000C53020F085EF93E0C63089F79F938F93CB
:100F70000E9491030F900F908BE094E09F938F93CA
:100F80000E9491030F900F908BE194E0D230A1F07A
:100F900058F480E194E0DD2379F086E194E0D130EB
:100FA00059F083E094E008C080E294E0D33021F06F
:100FB00086E294E0D430A9F79F938F930E94910327
:100FC0000F900F908BE294E09F938F930E94910378
:100FD0000F900F900115110561F01F930F9386E399
:100FE00094E09F938F930E9491030F900F900F9026
:100FF0000F908CE498E09F938F930E9491030F9041
:101000000F90DF91CF911F910F910895CF93C82F2B
:101010001F928F9382E494E09F938F930E94910399
:10102000C05DC093090187E091E00E943B076DE13C
:1010300077E182E297E10E943E070F900F900F90B8
:101040000F9080911D17882371F082E297E19F93A2
:101050008F938EE494E09F938F930E9491030F905F
:101060000F900F900F90CF91089564E574E082E3A4
:1010700098E10E942A436DE574E08CE298E10C94BB
:101080002A438CE298E10E94B84282E398E10C94F2
:10109000B842CF93DF93EC0168E670E08FED90E308
:1010A0000E94E83A70E060E08FED90E30E941E033A
:1010B0008A810E947B04682F8FED90E30E946C3A36
:1010C0008B810E947B04682F8FED90E30E946C3A25
:1010D0008C810E947B04682F8FED90E30E946C3A14
:1010E00061E070E08FED90E30E941E038D810E940D
:1010F0007B04682F8FED90E30E946C3A8E810E94F2
:101100007B04682F8FED90E30E946C3A8F810E94E0
:101110007B04682F8FED90E30E946C3A8FED90E393
:101120000E94633B68E670E08FED90E30E94E83A2E
:101130006FE070E08FED90E30E941E0368E070E0C6
:101140008FED90E30E941E038FED90E30E94633BBE
:101150001982DF91CF9108958BE891E30E94933F2C
:10116000892B81F42091561E3091571E8091581E74
:101170009091591E2817390739F0809147188695A4
:101180008170089581E0089580E008958BE891E3EF
:101190000E94933F181619062CF48BE891E30E94E5
:1011A000B03FF4CF8091471881FF08C08091561E50
:1011B0009091571E9093591E8093581E08950E9437
:1011C000C60889E694E09F938F930E9491030F9045
:1011D0000F908BE891E30E94933F18161906B4F024
:1011E0002091561E3091571E8091581E9091591E85
:1011F0002817390721F08091471881FD07C0809199
:101200004118882331F30E948032E3CF0895CF92B2
:10121000DF92EF92FF920F931F93CF93DF930E9481
:10122000EB3D6B017C01D1E0CFEF0E94AC08811156
:10123000B4C08091411881110E9480320E94EB3D20
:101240006C197D098E099F09683B7B4081059105DA
:10125000A0F462E08DE00E94003F8DE00E946A3FB2
:10126000892B09F0D0E061E08DE00E94003F6AE048
:1012700070E080E090E00E944A3E0E94EB3D0091C9
:101280000017109101172091021730910317601B6E
:10129000710B820B930B6D32714081059105F8F053
:1012A00080E00E946A3F61E0892B09F060E080E005
:1012B0000E943C3F0E94EB3D609300177093011722
:1012C0008093021790930317CC2349F08091151750
:1012D000882329F0C15019F480E00E94702D0E94EB
:1012E000EB3D6C197D098E099F09693B7B408105A7
:1012F000910508F49ACFDD2309F497CF88E690E0B2
:101300000E941503893009F490CF60E080E00E94CC
:101310003C3F69E088E690E00E943E0385E994E066
:101320009F938F930E9491030F900F90809141188B
:1013300081110E9480320E94EB3DC0900017D09036
:101340000117E0900217F09003176C197D098E09C0
:101350009F09653671058105910540F380E00E9483
:101360006A3F61E0892B09F060E080E00E943C3F29
:101370008DE00E946A3F61E0892B09F060E08DE01A
:101380000E943C3F0E94EB3D609300177093011751
:101390008093021790930317C9CF8BE891E30E94C3
:1013A000933F892B79F08BE891E30E94B03F282F7F
:1013B000822FDF91CF911F910F91FF90EF90DF90DF
:1013C000CF900895809147182FEF81FFF1CF809142
:1013D000581E9091591EFC01EE5BF74E2489019630
:1013E00060E076E00E946C459093591E8093581EF1
:1013F000DFCFEF92FF920F931F93CF93DF93D091A4
:10140000141887EC94E09F938F930E94910382EFCE
:1014100094E09F938F930E9491030F900F900F90F1
:101420000F908FE0E82E85E0F82E01E416E0FF92A1
:10143000EF920E949103809114180E948B0490E017
:1014400080E00E940709C82F0F900F908B3209F59A
:10145000809114188E3018F48F5F809314181F93A6
:101460000F930E9491030F900F90CD3001F7609180
:1014700014186D17B1F089E690E00E943E03809148
:101480001418DF91CF911F910F91FF90EF900C9462
:1014900076038D3221F780911418882301F381504F
:1014A000DCCFDF91CF911F910F91FF90EF900895C6
:1014B0008F929F92AF92BF92CF92DF92EF92FF9264
:1014C000CF93DF9388E195E09F938F930E949103E0
:1014D00082EF94E09F938F930E9491030F900F905F
:1014E0000F900F90C3E3D5E0A0911818B0E01196CB
:1014F00020E834E84EE150E00E94C5450E94674470
:101500009B01AC0160E876E988E99BE40E94BD4359
:101510004B015C010E942F446B01072E000C880BCD
:10152000990B0E9467449B01AC01C501B4010E9464
:10153000504320E030E048EC52E40E94F3440E9423
:101540002F447F936F93DF92CF92DF93CF930E94CC
:10155000910390E080E00E9407090F900F900F9098
:101560000F900F900F90609118188D3239F46930F8
:1015700008F0BACF6F5F60931818B6CF8B3229F49A
:10158000662309F4B1CF6150F6CF8D3009F0ACCFAE
:1015900086E690E0DF91CF91FF90EF90DF90CF90C3
:1015A000BF90AF909F908F900C943E03CF92DF92AC
:1015B000EF92FF92CF93DF93EC0190E080E00E94E6
:1015C00007098D3009F447C0883009F446C08F37C9
:1015D00009F443C090ED980F9A3048F488838AE06C
:1015E000DF91CF91FF90EF90DF90CF900895982FEB
:1015F0009F7D9154963090F38B3149F50E94EB3DDD
:101600006B017C010E94EB3D6C197D098E099F09DD
:10161000643671058105910510F088E0E1CF0E94E4
:10162000AC08882379F390E080E00E9407098B35AD
:10163000A1F790E080E00E940709813481F08234B4
:1016400081F0833481F0843481F080E0C9CF833528
:10165000E1F78BE0C5CF87E0C3CF89E0C1CF81E060
:10166000BFCF82E0BDCF84E0BBCF83E0B9CF8F9204
:101670009F92BF92CF92DF92EF92FF920F931F93B0
:10168000CF93DF9300D000D000D01F92CDB7DEB74C
:101690007C01C62EB42E40E060E08B2D0E949C069B
:1016A00000E010E08C2D8150990B6C01CE01079663
:1016B0000E94D60A81508A30A8F4E82FF0E0ED5954
:1016C000F44F0C94A245830B8C0B6D0B7E0B940B8B
:1016D0009D0BDC0B720BC60BA60B112319F01150DE
:1016E000198200E048EA50E36B2D8B2D0E9488059B
:1016F00040E0612F8B2D0E949C06D8CF1C151D0445
:101700008CF71F5FEDCFF701E10FF11D80818F3F57
:1017100049F38F5F8083E6CFF701E10FF11D8081F0
:10172000882301F38150F6CFF701E10FF11D80818D
:10173000863F08F085EF865FEDCFF701E10FF11DE1
:1017400080818A3008F48AE08A50E4CF053010F0B6
:10175000198200E099249394900EE1E0F0E0EC0F00
:10176000FD1FE00FF11D8F818083E1E0F0E0EC0FC1
:10177000FD1FE90DF11D1082CE0101960E94D64891
:10178000F701E10FF11D8083092DACCF4701810ED8
:10179000911C002371F00150E1E0F0E0EC0FFD1F1F
:1017A000E00FF11D1082CE0101960E94D648F4018F
:1017B000B1CFF401108296CF27960FB6F894DEBF12
:1017C0000FBECDBFDF91CF911F910F91FF90EF9092
:1017D000DF90CF90BF909F908F900895AF92BF926F
:1017E000DF92EF92FF920F931F93CF93DF9300D07E
:1017F00000D0CDB7DEB77C01D62E198241E060E083
:101800008D2D0E949C0600E010E0CE0104960E94FF
:10181000D60A81508A30A8F4E82FF0E0EE5EF34F4C
:101820000C94A245310C3A0C1C0C2D0C420C4C0CA7
:10183000940C210C790C550C112319F011501982BC
:1018400000E048EA50E36D2D8D2D0E94880541E0AF
:10185000612F8D2D0E949C06D8CF153090F71F5F09
:10186000EECFF701E10FF11D80818F3F51F38F5FC4
:101870008083E7CFF701E10FF11D8081882309F311
:101880008150F6CFF701E10FF11D8081813F10F407
:10189000805FEECF8FEFECCFF701E10FF11D80817C
:1018A000803108F480E18051E3CF023010F01982DA
:1018B00000E0BB24B394B00EE1E0F0E0EC0FFD1FBC
:1018C000E00FF11D8C818083E1E0F0E0EC0FFD1F63
:1018D000EB0DF11D108240E150E070E060E0CE01C0
:1018E00001960E94D347F701E10FF11D60830B2D94
:1018F000A8CF5701A10EB11C002399F00150E1E0DF
:10190000F0E0EC0FFD1FE00FF11D108240E150E010
:1019100070E060E0CE0101960E94D347F50160833C
:1019200090CFF50110828DCF0F900F900F900F90F8
:10193000DF91CF911F910F91FF90EF90DF90BF90BB
:10194000AF900895AF92BF92CF92DF92EF92FF9245
:101950000F931F93CF93DF9300D000D000D0CDB76B
:10196000DEB77C0110E089E4A82E85E0B82E9DE466
:10197000C92E95E0D92E90E080E00E9407098D30B5
:1019800041F58BEB96E09F938F930E9491030F900C
:101990000F90112361F0E1E0F0E0EC0FFD1FE10F8B
:1019A000F11D1082CE0101960E94D6487C01C7012C
:1019B00026960FB6F894DEBF0FBECDBFDF91CF9154
:1019C0001F910F91FF90EF90DF90CF90BF90AF905D
:1019D0000895883011F08F3751F4112361F21150BE
:1019E000BF92AF920E9491030F900F90C4CF90EDE1
:1019F000980F9A3008F0BFCF153008F0BCCF01E047
:101A0000010FE1E0F0E0EC0FFD1FE10FF11D80831D
:101A1000282F082E000C330B3F938F93DF92CF9229
:101A20000E9491030F900F900F900F90102FA3CF53
:101A3000BF92CF92DF92EF92FF920F931F93CF93BB
:101A4000DF937C01B62EC0E089E4C82E85E0D82E55
:101A50000DE415E090E080E00E9407098D30D1F49C
:101A60008BEB96E09F938F930E9491030F900F90C2
:101A700080E0CC2329F0CE0DDF2DD11D188281E02E
:101A8000DF91CF911F910F91FF90EF90DF90CF905A
:101A9000BF900895883011F08F3751F4CC23D1F2E4
:101AA000C150DF92CF920E9491030F900F90D2CF3E
:101AB000CB1580F6D1E0DC0FF701EC0FF11D808330
:101AC000282F082E000C330B3F938F931F930F93F7
:101AD0000E9491030F900F900F900F90CD2FBACFCF
:101AE0002F923F924F925F926F927F928F929F922E
:101AF000AF92BF92CF92DF92EF92FF920F931F931C
:101B0000CF93DF93CDB7DEB766970FB6F894DEBFFD
:101B10000FBECDBF0E94FC0268EA70E380E00E9425
:101B20005906512C9DE9692E93E0792E2AE1422E27
:101B300005EA13E03CE0332E4BE0242E51E7C52E9E
:101B400055E0D52E6DE4A62E65E0B62E73EE872EF9
:101B500075E0972ECE0146960E94D60A8130A1F4F8
:101B6000FF24FA94511018C089E0F82E48EA50E397
:101B70006F2D852D0E94880548EA50E36F2D8F2D2B
:101B80000E9488055F2CE6CF823041F489E0F12C79
:101B9000581661F3FF24F394F50CE8CF883079F5FB
:101BA0000E94FC0268EA70E3852D0E94590680E5D8
:101BB00095E09F938F930E94910368EE73E080E01D
:101BC00090E00E944A3E0F900F9080E066960FB61C
:101BD000F894DEBF0FBECDBFDF91CF911F910F9163
:101BE000FF90EF90DF90CF90BF90AF909F908F903D
:101BF0007F906F905F904F903F902F9008958B3023
:101C000009F046C0DF92CF920E9491030F900F908F
:101C1000F12C90E080E00E940709F11023C0893781
:101C200031F5F394282F082E000C330B3F938F933C
:101C3000BF92AF920E9491030F900F900F900F9060
:101C400083E0F812E6CF8AE28093DE300E944E03F2
:101C50008EE995E09F938F930E9491030F900F90D0
:101C600081E0B4CF91E0F91210C08536D1F2852D14
:101C700090E004969F938F939F928F920E9491037E
:101C80000F900F900F900F9065CF833751F2EFCFE9
:101C9000873009F05FCFE52CF12CEFEFE50DE9304F
:101CA00070F4F0E0EA5AF14F0C94A245720E790EEE
:101CB0007E0E830E880E8D0E920EAB0EBB0E60E074
:101CC00088EA90E30E94EE0B48EA50E3652D852DEB
:101CD0000E94880584E0E80EF11CFF92EF927F924B
:101CE0006F92CCCF41E064E08EEA90E30E94370B24
:101CF000EBCF42E064E082EB90E3F8CF43E064E0B6
:101D000086EB90E3F3CF44E064E08AEB90E3EECF20
:101D100045E064E08EEB90E3E9CF46E064E082ECDE
:101D200090E3E4CF1F924F921F922F921F930F9335
:101D30000E9491038091C6309091C7300E94A20CFE
:101D40009093C7308093C6300F900F900F900F90F4
:101D50000F900F90B9CF1F924F921F923F921F93F7
:101D60000F930E9491038091C83090E00E94A20CD2
:101D70008093C830E9CF69EC70E3CE0101960E94F0
:101D800011491F924F921F929DE09F931F930F93B3
:101D90000E94910364E1CE0101960E94180D0F90FC
:101DA0000F900F900F900F900F90882309F48CCF15
:101DB000BE016F5F7F4F89EC90E30E94114984CF91
:101DC000DF92EF92FF920F931F93CF93DF93C09117
:101DD000F017CC2309F44BC0D42FC72FD62E8C017B
:101DE00064E570E08FED90E30E94E83A612F70E0C7
:101DF0008FED90E30E941703B80177278FED90E3F2
:101E00000E94170360E08FED90E30E94EA3A4D2FA5
:101E100064E58FED90E30E94603BED2CFC2EC0E06A
:101E20008FED90E30E940C3A892B59F0DC1749F0B2
:101E30008FED90E30E94133AF70181937F01CF5F0A
:101E4000EFCF1F930F931F92CF9385E296E09F935E
:101E50008F938BE891E39F938F930E941E428DB7DF
:101E60009EB708960FB6F8949EBF0FBE8DBF8C2FFD
:101E7000DF91CF911F910F91FF90EF90DF90089528
:101E80001F93CF93DF93EC0168E670E08FED90E352
:101E90000E94E83A70E060E08FED90E30E941E033C
:101EA0008FED90E30E94633B42E168E68FED90E3A3
:101EB0000E94603B8FED90E30E94133A8F770E945F
:101EC00082048A838FED90E30E94133A0E94820479
:101ED0008B838FED90E30E94133A8F730E948204EC
:101EE0008C838FED90E30E94133A8FED90E30E9474
:101EF000133A0E9482048D838FED90E30E94133A7F
:101F00000E9482048E838FED90E30E94133A0E9418
:101F100082048F831AE08FED90E30E94133A1150F0
:101F2000D1F78FED90E30E94133A8887DF91CF912C
:101F30001F9108952F923F924F925F926F927F92DE
:101F40008F929F92AF92BF92CF92DF92EF92FF92C9
:101F50000F931F93CF93DF9381EF97E10E94400F80
:101F600083E496E09F938F930E94910382EF94E025
:101F70009F938F930E9491030F900F900F900F905B
:101F8000C0E084E3482E83E1582E92E7892E96E044
:101F9000992E23E9222E26E0322E09E816E03FE9A9
:101FA000E32E36E0F32E4FE5C42E46E0D42E58E65D
:101FB000A52E56E0B52E61E4662E66E0762E5F9281
:101FC0004F920E9491030F900F90C23009F472C09B
:101FD00008F051C0CC2309F45BC0C13009F463C0E0
:101FE00090E080E00E940709D82F8B3209F4F4C0FA
:101FF0008D3209F415C18D3099F77F926F920E944E
:1020000091030F900F90DD30D1F6CF5FC630B8F25C
:1020100081EF97E10E9449088BEA96E09F938F93A6
:102020000E9491038EEB96E09F938F930E94910301
:1020300081EF97E10E94A5048CE498E09F938F9331
:102040000E9491030F900F900F900F900F900F90A0
:10205000DF91CF911F910F91FF90EF90DF90CF9084
:10206000BF90AF909F908F907F906F905F904F90B8
:102070003F902F900895C43059F118F1C53009F000
:10208000AFCFFF92EF920E9491038091F31706C0A9
:10209000DF92CF920E9491038091F8170E948B04E7
:1020A0000F900F909DCFBF92AF920E9491038091AD
:1020B000F717F4CF9F928F920E9491038091F617A9
:1020C000EDCF1F930F930E9491038091F517E6CFF8
:1020D0003F922F920E9491038091F417DFCF80915D
:1020E000F8178F5F843618F48093F81786CF109214
:1020F000F81783CFC093F71780CF8091F6178F5FC3
:102100008093F617E091F717E23091F490E0209178
:10211000F817237051F42DE130E0281739070CF03F
:102120006CCF81E08093F61768CF2CE130E0F5CFDB
:10213000F0E0EF5BF04F9081981798F35ECF8091BD
:10214000F5178F5F883118F48093F51756CF1092EA
:10215000F51753CF8091F4178F5F8C3318F4809369
:10216000F4174BCF1092F41748CF1092F31745CFC6
:102170008091F817811102C083E6B6CF8150B4CFA9
:1021800081503AC0E091F7178091F617E23049F498
:10219000813071F49091F817937009F080E0845EBB
:1021A000C1CF813029F4F0E0EF5BF04F8081BACFEE
:1021B0008150B8CF8091F517813011F487E1C4CFF9
:1021C0008150C2CF8091F417813011F48BE3C7CFD7
:1021D0008150C5CF815021C0C23009F48ECF78F430
:1021E000CC2309F47CCFC13009F007CF8091F717D9
:1021F0008F5F8D3008F07ECF8093F717FECEC4300E
:1022000009F4A8CF08F49BCFC53009F0F6CE809131
:10221000F3178F5F8C3308F0A8CF8093F317EDCEC0
:10222000C23009F4AFCF68F4CC2309F4A1CFC13098
:1022300009F0E3CE8091F717813009F0A1CF8CE04F
:10224000DBCFC43009F4BECF08F4B4CFC53009F0F9
:10225000D4CE8091F317813009F0BCCF8BE3DDCF72
:102260002F923F924F925F926F927F928F929F92A6
:10227000AF92BF92CF92DF92EF92FF920F931F9394
:10228000CF93DF9300D000D0CDB7DEB78983109213
:102290001C1810921B1884E6809312188FEF8093FD
:1022A0001318809329181092251810922418109250
:1022B000201810921F1810921618109215181092CC
:1022C00011181092101810920F1881E080930E18B8
:1022D00010920D1810920C181092171710920918DE
:1022E00080930B1860E086E10E943C3F61E081E052
:1022F0000E943C3F8091B0008F738093B00060E0FB
:102300008FE00E943C3F61E08FE00E94003F0E940E
:102310002A0789E690E00E9415038F3008F095C2E5
:1023200080931418809114180E94760362E08DE067
:102330000E94003F8DE00E946A3F8C0161E08DE0C9
:102340000E94003F61E08DE00E943C3F8AE690E001
:102350000E9415038A83823008F01A8285E690E095
:102360000E941503823008F072C280931F172A81E1
:10237000222309F46FC284E690E00E941503809343
:102380002318012B09F06AC28BED96E09F938F937F
:102390000E9491030F900F908AE38B8391E39983BE
:1023A00059E0852E57E0952E6FE1262E68E0362EF7
:1023B00070E5A72E78E0B72E0BEB16E09F928F9278
:1023C00021E137E03F932F9329E137E03F932F93AB
:1023D00021E237E03F932F930E94910384E08F9393
:1023E0001F9225E537E03F932F930E949103A09120
:1023F0001818B0E0119620E834E84EE150E00E9451
:10240000C5450E9467449B01AC0160E876E988E914
:102410009BE40E94BD432B013C010E942F446B01B1
:10242000072E000C880B990B0E9467449B01AC019E
:10243000C301B2010E94504320E030E048EC52E476
:102440000E94F3440E942F447F936F93DF92CF92B8
:1024500027E837E03F932F930E9491030FB6F8943B
:10246000DEBF0FBECDBF8091F117882351F18BEAFB
:1024700097E09F938F930E94910381EF97E10E94D1
:10248000A5042091F917822F022E000C990B9F931F
:102490002F938AEC97E09F938F930E9491030F9064
:1024A0000F900F900F900F900F908091F21788234C
:1024B00041F084ED97E09F938F930E9491030F90DA
:1024C0000F9080912618882341F087E098E09F9331
:1024D0008F930E9491030F900F908091F0178823A3
:1024E00031F03F922F920E9491030F900F908091B4
:1024F00041188823C9F08091B1301F928F93809149
:10250000B0301F928F938091AF301F928F93809144
:10251000AE301F928F93BF92AF920E9491030FB67D
:10252000F894DEBF0FBECDBF85E898E09F938F93F0
:102530000E9491030F900F9080911F17882309F438
:1025400014C28CE998E09F938F930E9491030F909F
:102550000F9083EA98E09F938F930E9491030F90CE
:102560000F909A81992309F403C28CE998E09F9314
:102570008F930E9491030F900F908BEC98E09F93A4
:102580008F930E9491030F900F908091F0178823F2
:1025900041F08DEE98E09F938F930E9491030F90EE
:1025A0000F908091FD178F938091FC178F938091EE
:1025B000FB178F938091FA178F9386EF98E09F9384
:1025C0008F930E9491030F900F900F900F900F9098
:1025D0000F908091FA179091FB17A091FC17B09182
:1025E000FD17892B8A2B8B2B09F0C5C11F930F93E5
:1025F0000E9491030F900F900E94C6081F930F93A3
:102600000E949103809123180F900F90853080F4E1
:1026100090E001969F938F938FE199E09F938F9322
:102620000E9491030F900F900F900F9030E3398329
:1026300080E499E09F938F930E9491038CE499E04A
:102640009F938F930E94910388E599E09F938F93C6
:102650000E949103809118170E94060889E699E06C
:102660009F938F930E9491038AE799E09F938F93A2
:102670000E94910386E899E09F938F930E949103B3
:1026800083EA99E09F938F930E9491030FB6F89489
:10269000DEBF0FBECDBF80911F17811190C18CE9A5
:1026A00098E09F938F930E9491030F900F908CE47A
:1026B00098E09F938F930E94910388E690E00E9498
:1026C000150394E0899FF0011124E65EF04F8381A9
:1026D0008F9382818F9381818F9380818F9382ECFE
:1026E00099E09F938F930E949103809114181F92F9
:1026F0008F9385EE99E09F938F930E9491030FB67D
:10270000F894DEBF0FBECDBF80911418833069F0FE
:102710001F9283E08F9385E09AE09F938F930E94AE
:1027200091030F900F900F900F901F930F930E94A3
:1027300091038FE19AE09F938F930E9491030F90F2
:102740000F900F900F903A818EE39AE0332311F0AF
:1027500082E49AE09F938F930E9491030F900F90D1
:102760001F930F930E9491030F900F908091F11788
:10277000882351F087E49AE09F938F930E949103FE
:102780000F900F908BE38B8380914118882351F039
:102790008FE59AE09F938F930E9491030F900F9083
:1027A0009CE39B838DE79AE09F938F930E94910314
:1027B0000F900F9081E090E00E94070981360CF0A5
:1027C00001C180931A1880911A1881341CF0875027
:1027D00080931A1880911A18298182170CF4F4C07A
:1027E0003B8138173CF380911517882319F080E05E
:1027F0000E94702D20911A182D3081F0822F022E08
:10280000000C990B9F932F9383E99AE09F938F93EA
:102810000E9491030F900F900F900F90E0911A1863
:10282000E353EA3008F021C10E2E000CFF0BE55EE9
:10283000FB4E0C94A245E814351535154C154F1573
:102840005915B615B915C115C41583E069CD109297
:102850001F178DCD8FEF8093231896CD853008F00C
:1028600093CD3981313009F48FCD80912318823096
:1028700049F580911418882389F01F928F9388EF6F
:102880009AE09F938F930E9491031092141880E016
:102890000E9476030F900F900F900F9081E29BE0C3
:1028A0009F938F930E949103809118170E940608AE
:1028B0008BEB96E09F938F930E9491030F900F9064
:1028C0000F900F9061E080E00E943C3F80912318C0
:1028D000823009F496C108F066C1882309F47AC1F0
:1028E000813009F485C160E080E00E943C3F809126
:1028F0001D1890911E18892B79F090E080E00E94BD
:10290000000783EC0E94CC0680911D180E94CC0623
:1029100080911E180E94CC0680911D1890911E185F
:102920000E94000780912318843008F0A1C282E43D
:1029300097E10E944F27882309F4ADC182E497E113
:102940000E944F2780931E17882309F4A4C150E0EA
:1029500040E060911E1780E00E9484070E94DF081B
:1029600082E497E10E943807E9CF8FE998E0EBCD48
:102970008FE998E0FCCD8091FE171F928F93809194
:10298000FF171F928F93809100181F928F93809151
:1029900003181F928F93809102181F928F9380913A
:1029A00001181F928F938CEF98E09F938F930E9452
:1029B00091030FB6F894DEBF0FBECDBF1DCE8FE9D9
:1029C00098E06FCE8052FDCE8D3009F0F3CE0BCF64
:1029D0000E9472048091181781508093191826E084
:1029E000622E3CE9E32E3AE0F32E41EAC42E4AE09F
:1029F000D42E809119188F5F662D0E9460459093A8
:102A00001918FF92EF920E949103809119180E9469
:102A10000608DF92CF920E9491030E94C60890E0C0
:102A200080E00E940709782E0F900F900F900F9072
:102A30008DE0781619F09BE17912DBCF89EB96E0F7
:102A40009F938F930E9491030F900F902DE072122D
:102A500009C0609119186093181787E690E00E94EA
:102A60003E0303C08DE080931A1860911A186633F4
:102A70000CF0A4CC6D3009F4A1CC61536093231801
:102A80008A81882309F4F1CE84E690E0653008F06D
:102A900085C00E943E03E9CE0E94580AE6CF61E05D
:102AA00080911F17811160E060931F1785E690E009
:102AB000D6CF0E94720488E690E00E9415038150F0
:102AC000809319188AE0D82E94EBE92E9AE0F92E1B
:102AD000809119188F5F6D2D0E9460459093191891
:102AE00034E0939FF0011124E65EF04F83818F93D1
:102AF00082818F9381818F9380818F93FF92EF9258
:102B00000E9491030E94C60890E080E00E9407099D
:102B1000C82E0F900F900F900F900F900F908DE098
:102B2000C81619F09BE1C912D3CF89EB96E09F93A9
:102B30008F930E9491030F900F902DE0C21295CFBA
:102B400088E690E00E94150360911918861709F431
:102B50008CCF88E690E00E943E0380EC9AE09F9341
:102B60008F930E9491030F900F907FCF0E94F909DD
:102B70007CCF81E03A8138273A83632F8AE690E060
:102B80006ECF0E949A0F71CF0E94700D882309F4B6
:102B90006CCF0E9480320E944D3167CF0E94150396
:102BA0008093231862CE833009F472C0843009F018
:102BB0009ACEEDEAF0E0859194919093221880935B
:102BC00021188AE692E09093201880931F1880E1E4
:102BD0009DEF48C08FE29BE09093211780932017D0
:102BE00010921E1810921D1881E080931C187BCE45
:102BF0008BE39BE0909321178093201780E091E076
:102C000031C080911817823091F170F4882311F14E
:102C1000813009F068CE81E59BE090932117809385
:102C2000201780E890E01EC0843079F118F18530DB
:102C300009F059CE8BE79BE09093211780932017E2
:102C400010921E1810921D1881E080931C1810928B
:102C50001B1849CE87E49BE090932117809320179F
:102C600080EE91ED90931E1880931D183CCE8CE55C
:102C70009BE0C0CF87E69BE09093211780932017BD
:102C800010921E1810921D182ECE83E79BE0F4CFF1
:102C900085E89BE0F1CF80912017909121170E9449
:102CA0005D2880931E17882341F140912017509191
:102CB000211760911E1781E00E9484070E94DF089F
:102CC00080912017909121170E945D2880931E17F4
:102CD000833081F082E497E10E94380782E497E133
:102CE0000E94380780912017909121170E945D283B
:102CF00080931E1780911E17D6CF809121178F9336
:102D0000809120178F9382E99BE09F938F930E947D
:102D100091030E9480320F900F900F900F906DE101
:102D200077E182E297E10E943E0780931E1710929E
:102D30001918E091191880911D17E81760F4F0E058
:102D4000EE5DF84E80810E94CC06809119188F5F4D
:102D500080931918EECF60911E17803281F466239C
:102D6000F1F2409120175091211782E00E948407D0
:102D70000E94DF0890E080E00E94760702C06111A7
:102D8000F0CF80911E178111CACF81ED9BE09F93F8
:102D90008F930E94910360E086E10E943C3F809106
:102DA000B6008F7D8093B6008091B10081608093E2
:102DB000B1008091B100897F8093B1008091B00013
:102DC00082608093B0008091B0008E7F8093B000CD
:102DD0008091B00080648093B0008091B0008F77C4
:102DE0008093B000809118188093B30061E08FE069
:102DF0000E94003F89ED9BE09F938F930E94910377
:102E00000E9480320E94C608109280008BE080935E
:102E1000810084E39CE0909389008093880082E0A5
:102E200086BB61E070E080E090E00E944A3E61E095
:102E300086E10E943C3F10920B180F900F900F906C
:102E40000F900F900F900F900F90DF91CF911F91E7
:102E50000F91FF90EF90DF90CF90BF90AF909F9039
:102E60008F907F906F905F904F903F902F9008953C
:102E700084EB9BE09F938F930E9491030F900F90A0
:102E80001C821B8280911F18909120182B813C81FD
:102E90002817390708F079CFE0912118F09122180E
:102EA000E20FF31F84910E94CC068B819C810196D6
:102EB0009C838B83E7CFCF93DF93EC01188268E686
:102EC00070E08FED90E30E94E83A8FED90E30E946E
:102ED000633B811136C081E0888368E670E08FED46
:102EE00090E30E94E83A6FE070E08FED90E30E947B
:102EF0001E038FED90E30E94633B41E068E68FED97
:102F000090E30E94603B8FED90E30E94133A80783B
:102F1000898368E670E08FED90E30E94E83A6EE006
:102F200070E08FED90E30E941E0370E060E08FED93
:102F300090E30E941E038FED90E3DF91CF910C94FC
:102F4000633BDF91CF910895AF92BF92CF92DF9212
:102F5000EF92FF920F931F93CF93DF93CDB7DEB71E
:102F600066970FB6F894DEBF0FBECDBF61E086E175
:102F70000E94003F60E086E10E943C3F61E080E00B
:102F80000E94003F61E080E00E943C3F11B88FEF5B
:102F900082B961E08BE00E943C3F61E08BE00E94DF
:102FA000003F60E085E00E943C3F61E085E00E94D8
:102FB000003F61E087E00E94003F60E086E00E9401
:102FC000003F62E081E00E94003F61E081E00E94FA
:102FD000003F61E081E00E943C3F61E082E00E94AE
:102FE000003F61E082E00E943C3F62E083E00E949B
:102FF000003F61E08EE00E943C3F61E08EE00E9475
:10300000003F62E085E10E94003F62E084E10E94AF
:10301000003F62E083E10E94003F62E082E10E94A3
:10302000003F61E08FE00E94003F61E087E10E9485
:10303000003F62E08AE00E94003F60E082E00E9480
:103040003C3F86E690E00E9415038F3F09F46FC174
:1030500080931818809118188A3018F089E08093AE
:10306000181887E690E00E941503809318178630A1
:1030700038F060E087E690E00E943E031092181757
:1030800088E690E00E94150324E0829FF00111245D
:10309000E65EF04FF080E180D280C38026E04F2DC5
:1030A0005E2D6D2D7C2D8BE891E30E94834064EFB3
:1030B00071E080E090E00E944A3E8FED90E30E9434
:1030C000C83A40E85AE166E070E08FED90E30E9474
:1030D000DA3A64E570E08FED90E30E94E83A8FED14
:1030E00090E30E94633B811103C081E08093F0175D
:1030F0008091F017882309F41CC14AE06AEF77E158
:1031000090E080E00E94E00E8091FA179091FB170A
:10311000A091FC17B091FD178F3F9F4FAF4FBF4F4E
:1031200041F41092FA171092FB171092FC171092AC
:10313000FD1788E690E00E9415038A3028F069E0C8
:1031400088E690E00E943E030E94052D80931517AB
:10315000882309F495C00E94D42D8EE49FE00E943C
:10316000E92C89E097E09F938F9389E197E09F9303
:103170008F938AEF9BE09F938F938E010F5F1F4F7A
:103180001F930F930E942049A80160E080E00E94F5
:103190006B2ECF92DF92EF92FF9285E09CE09F939F
:1031A0008F931F930F930E942049A80161E080E054
:1031B0000E946B2E8091FD178F938091FC178F9347
:1031C0008091FB178F938091FA178F9383E19CE096
:1031D0009F938F931F930F930E942049A80163E050
:1031E00080E00E946B2E0FB6F894DEBF0FBECDBFFD
:1031F0008091FA179091FB17A091FC17B091FD17E1
:10320000892B8A2B8B2B51F18091FE171F928F9364
:103210008091FF171F928F93809100181F928F93B8
:10322000809103181F928F93809102181F928F93A1
:10323000809101181F928F9381E29CE09F938F935E
:103240001F930F930E942049A80164E080E00E9430
:103250006B2E0FB6F894DEBF0FBECDBF41E45CE02D
:1032600066E080E00E946B2E4DE554E067E080E070
:103270000E946B2E44E554E067E080E50E946B2ECF
:1032800060E270E08FED90E30E94E83A8FED90E30A
:103290000E94633B811119C081E08093261860E28F
:1032A00070E08FED90E30E94E83A6CE070E08FED03
:1032B00090E30E941E0365E070E08FED90E30E94B2
:1032C0001E038FED90E30E94633B82E497E10E942E
:1032D000380782E497E10E9438070E941D318091EF
:1032E0004118882321F00E94ED030E944D3181EFA7
:1032F00097E10E945B178091F117882321F081EFFD
:1033000097E10E94400F80E00E94301166960FB650
:10331000F894DEBF0FBECDBFDF91CF911F910F910B
:10332000FF90EF90DF90CF90BF90AF90089581E035
:103330008FCE8AEFA82E87E1B82E10E000E0C801FA
:103340000E94334CF50181935F010F5F1F4F0A30DC
:103350001105A9F7D9CEEF92FF920F931F93CF9348
:10336000DF93F090F017FF20D1F1142F7B01EC01D7
:1033700064E570E08FED90E30E94E83A6D2F70E015
:103380008FED90E30E941703BE0177278FED90E346
:103390000E941703412F50E0B7018FED90E30E9488
:1033A0009B3A8C01F82E61E08FED90E30E94EA3A9F
:1033B000DF93CF9311271F930F9387E49CE09F9394
:1033C0008F938BE891E39F938F930E941E428DB75A
:1033D0009EB708960FB6F8949EBF0FBE8DBF8F2D77
:1033E000DF91CF911F910F91FF90EF900895EF9291
:1033F000FF920F931F93CF93DF9300D0CDB7DEB72B
:1034000081E01B9B02C00C943623809305183399EE
:1034100015C696B1947090932B1820B120932A185A
:1034200080912918992309F432C18F3FA9F0909116
:1034300028189F93909127189F931F928F931F9204
:103440002F9388E69CE09F938F930E9491030FB681
:10345000F894DEBF0FBECDBF80912A188093291843
:1034600010922818109227185E98289A4A99FECF31
:1034700028985E9AB19B86C082E086BB8091101826
:103480008F5F8093101890914118992319F091E063
:10349000909317178A3008F45EC01092101880912C
:1034A0000F188F5F80930F180BB155985D9A18B164
:1034B0003F98479A82E090E00E94833E89B185FB65
:1034C000882780F991E0892780930A1805FD02C0BA
:1034D0000C943A235D9A559A379905C080910A1841
:1034E000826080930A1817FD02C00C943D23479810
:1034F0003F9A80910A18882319F080E80E94702D65
:1035000080910C18813011F00C9440230E943011EE
:1035100010920C1880910F188A30E8F010920F1852
:103520000E94902D809109188823A9F09091041889
:10353000992311F40C945F2390910518992311F4A9
:103540000C945F23109206188F77809307181092BF
:1035500005181092041880911B18882399F0809107
:103560001118865F8093111890911218891750F0E6
:103570001092111881E080931518809116188260BE
:10358000809316180E94AC08882389F080911C183B
:10359000813069F490910E18992349F080931518A1
:1035A0008091161881608093161810920E188091E1
:1035B0001518882379F0809129188D3059F0809161
:1035C000131890911418981711F08F3F19F4299837
:1035D0001092151880911517882381F0809111178A
:1035E000909112178230910511F40C94E02310F0A1
:1035F0000C94CF23019711F40C94DC231092121732
:1036000010921117809141188823C1F180E00E9427
:10361000763910E000E0882381F080915A2490915F
:103620005B249A5F20915C2430915D24821B930B74
:1036300060E076E00E946C458C0181E00E94763962
:10364000882389F080918D3090918E309A5F2091FF
:103650008F3030919030821B930B60E076E00E94B7
:103660006C45080F191F80911717811103C005368B
:10367000110520F0109217170E9480320F900F90C2
:10368000DF91CF911F910F91FF90EF9008958E34AD
:1036900008F0C6C4E82FF0E0E05BF44E0C94A245BD
:1036A0009E1BBC1B1020CC1BEA1BFA1B081C161C03
:1036B000241C321C501C7D1C911CEB1C041D0D1D78
:1036C000131D171DA61D10201020102010201020E3
:1036D000102010201020102010201020102010206A
:1036E000102010201020102010201020102010205A
:1036F000102010201020102010201020102010204A
:103700001020102010201020102010201020102039
:103710001020102010201020102010201020102029
:10372000E91DF01D281E361E5A1EF21EFC1E10201A
:103730001020201F491F701FC41FE41F60E020FFDE
:1037400061E08DE00E943C3F809129188A3009F4A5
:103750008BCE8C3009F488CE9FEB980F923008F412
:1037600083CE843409F480CE8954853008F47CCE2D
:103770008FEF8093291878CE622F8BE891E30E9417
:103780003640809141188823F9F280914718609162
:103790002A1881FFD9CF2CC32093051780912618B2
:1037A000882309F445C260E270E08FED90E30E9447
:1037B000E83A62E170E08FED90E30E941E036091B1
:1037C0002A188FED90E30E946C3A8FED90E30E94EF
:1037D000633BBACF2093041780912618882309F4FD
:1037E00027C260E270E08FED90E30E94E83A63E167
:1037F00070E0E1CF80912618882309F419C260E2B5
:1038000070E08FED90E30E94E83A70E060E0D3CF83
:1038100080912618882309F40BC260E270E08FEDD6
:1038200090E30E94E83A61E070E0C5CF80912618ED
:10383000882309F4FDC160E270E08FED90E30E94FF
:10384000E83A6CE070E0B7CF80912618882309F43D
:10385000EFC160E270E08FED90E30E94E83A6DE026
:1038600070E0A9CF80E12436C0F480911817805D04
:1038700080931401822F6AE00E94604590E3980FC4
:1038800090931601205D36EF839F200D1124209325
:10389000170182E191E00E945D288093060154CFD8
:1038A0008091271890912818422F50E0009751F4EA
:1038B00050931C1740931B170196909328188093E0
:1038C000271842CF20911B17342F30931C172093B9
:1038D0001B1740911A172115324040F4403248F42A
:1038E000109206012FEF20932918E6CF21E14032F4
:1038F00008F022E120930601F5CF20931A1780915A
:103900001B1790911C178115924028F4203238F42F
:103910001092060119CF81E1203208F4BECF82E176
:10392000BCCF8091271890912818892BD1F48091D1
:103930001B1790911C178115A2E09A0790F4209113
:103940001A17203270F43091060131110AC055E087
:10395000880F991F5A95E1F7822B0E947607809372
:10396000060180910601811131C0809127188F7165
:10397000E82FF0E0EE5DF84E90912A1890838F3199
:1039800029F569E177E182E297E10E945707809388
:10399000060180911917803218F483E180930601A3
:1039A00080912718909128188F3F914078F080914E
:1039B0000601811108C069E177E190E080E00E9492
:1039C0005707809306018FEF80932918809127185D
:1039D0009091281871CF2F3050F45C9A80912A185A
:1039E000809314185C988FEF80932918ADCE1F92A6
:1039F0002F9383EB9CE09F938F930E9491030F90F2
:103A00000F900F900F90EFCF822F817080931C1832
:103A10002695217020931B1897CE222309F408C104
:103A20002093121891CE217020930D188DCE809185
:103A30002618882309F4FCC081E080932518211101
:103A400080E08093241860E270E08FED90E30E94A4
:103A5000E83A62E170E08FED90E30E941E0360910E
:103A60002418660F656070E08FED90E30E941E03DE
:103A70008FED90E30E94633B60E270E08FED90E396
:103A80000E94E83A70E060E08FED90E30E941E0330
:103A900068EF70E08FED90E30E941E038FED90E3DE
:103AA0000E94633B60E270E08FED90E30E94E83A91
:103AB00061E070E08FED90E30E941E0370E060E033
:103AC0008FED90E30E941E038FED90E30E94633B15
:103AD00060E270E08FED90E30E94E83A6CE070E005
:103AE0008FED90E30E941E036FEF70E08FED90E387
:103AF0000E941E038FED90E30E94633B10912418F7
:103B0000110F60E270E08FED90E30E94E83A62E10D
:103B100070E08FED90E30E941E03612F61608FEDD6
:103B200090E30E946C3A8FED90E30E94633B60E269
:103B300070E08FED90E30E94E83A62E170E08FED73
:103B400090E30E941E03612F65603BCE8091251893
:103B5000882309F46DC060E270E08FED90E30E946D
:103B6000E83A63E170E08FED90E30E941E036091FC
:103B70002A188FED90E30E946C3A8FED90E30E943B
:103B8000633B10912418110F60E270E08FED90E319
:103B90000E94E83A62E170E08FED90E30E941E031C
:103BA000612F6C6F8FED90E30E946C3A8FED90E384
:103BB0000E94633B60E270E08FED90E30E94E83A80
:103BC00062E170E08FED90E30E941E03612F6D6F44
:103BD000F8CD81EF820F803F58F120931318B4CDB8
:103BE00080912718909128188A30910508F5FC01DA
:103BF000EA5FF84E20830196909328188093271847
:103C000083309105C1F480910617811111C0809114
:103C1000071780931417809108178093131782E079
:103C200090E090931217809311178FEF80932918CB
:103C30008091291891CD8130910509F0CFC520914F
:103C400006172130A9F79093121780931117CBCE46
:103C5000222349F02093101783E090E090931217ED
:103C60008093111771CD82E090E0EDCF223078F48F
:103C7000209316171F922F938CEC9CE09F938F93A9
:103C80000E9491030F900F900F900F905DCD1F92A7
:103C90002F9383EE9CE09F938F938BE891E39F9308
:103CA0008F930E941E420F900F900F900F900F90D5
:103CB0000F904ACD80911617482F50E0823008F0BF
:103CC00085C020FF17C083E39CE0489FF001499F17
:103CD000F00D589FF00D1124EE5BF74E868188237E
:103CE00049F0168286E09DE09F938F930E94910396
:103CF0000F900F908091161703E31CE0809FF00156
:103D0000819FF00D1124EE5BF74E958120912A18CA
:103D10004091271850912818452BE9F4922B958350
:103D20001F928F931F929F931F922F938BE29DE080
:103D30009F938F930E949103809127189091281848
:103D4000019690932818809327180FB6F894DEBF39
:103D50000FBECDBFF9CC322F30959323958323FF2F
:103D600017C00E947639811113C020911617209F29
:103D7000C001219F900D11248E5B974EFC01E65EE1
:103D8000F34F885E934FDC018D919C9191838083EA
:103D9000809116171F928F9323E33CE0829FF001DE
:103DA000839FF00D1124EE5BF74E85811F928F9358
:103DB00080912A181F928F9385E69DE09F938F93A1
:103DC0000E9491038FEF80932918BFCF1F928F938A
:103DD0008FE99DE09F938F930E9491038FEF8093D3
:103DE000291850CF80914118882309F421CF622FE0
:103DF00080E00E94A039A8CC80914118882309F462
:103E000017CF622F81E00E94A03980917A2481FF30
:103E10009BCC80912A181F928F938DE495E09F93FD
:103E20008F938BE891E39F938F930E941E42809122
:103E300047180F900F900F900F900F900F90A7CCF6
:103E4000809105174091271850912818452B31F47F
:103E5000282B2093051781E090E02FCD2095822319
:103E6000809305178FEF8093291880912618882357
:103E700009F4DECE60E270E08FED90E30E94E83A54
:103E800062E170E08FED90E30E941E0360910517E0
:103E900098CC809104174091271850912818452BF1
:103EA00021F4282B20930417D6CF209582238093CA
:103EB00004178FEF8093291880912618882309F41E
:103EC000B7CE60E270E08FED90E30E94E83A63E1E4
:103ED00070E08FED90E30E941E036091041771CC97
:103EE0008091271890912818892B29F4209308187D
:103EF00010920918B0CF90910818822F80958913DD
:103F000032C0809309188F77809307181092061893
:103F10001092051810920418FAE08F9FC001112426
:103F20009F938F9384EC9DE09F938F930E949103C6
:103F30000F900F900F900F9080910718882381F0B9
:103F40008091091887FF09C080EE9DE09F938F93B1
:103F50000E9491030F900F9046CD8DEF9DE0F6CF1C
:103F600081E19EE0F3CF1F922F931F929F938EE1EA
:103F70009EE09F938F930E9491030F900F900F905C
:103F80000F900F900F902FCD8091271890912818A7
:103F9000009731F430E03093EF172093EE178CCC7C
:103FA0008130910551F44091EE175091EF17522B4B
:103FB0005093EF174093EE177FCC213818F42093DD
:103FC000ED1790CC20E8FBCF80912718909128180E
:103FD0008038910520F4FC01E459F84E20830196C5
:103FE00090932818809327184091ED1748171906C9
:103FF00009F01ECE6CE677E18091EE179091EF17F5
:104000000E94AB198093EC172091EE173091EF17B7
:10401000820F932F911D9093EF178093EE17E3CCAF
:104020001F928F931F922F9382E49EE09F938F9312
:104030000E9491038FEF8093291835CE34990FC3D6
:1040400086B1847080932B1810922A18882309F463
:104050004EC08FEF80932A188BE891E30E94933F24
:10406000181619060CF58BE891E30E94B03F809377
:104070002A181092171861E081E00E943C3F80915D
:1040800016188E7F8093161881E080930E188FEF9C
:1040900081B980912A1882B95E98289A4A99FECFF0
:1040A00011B88FEF82B9E4C98091581E9091591EC2
:1040B0002091561E3091571E28173907A1F02091E4
:1040C000471821FF10C0FC01EE5BF74E24892093B6
:1040D0002A18019660E076E00E946C459093591E84
:1040E0008093581EC6CF81E080931718C4CF80916B
:1040F0002918893809F429C208F04DC0843809F418
:1041000087C1D0F5813809F44FC198F4803809F49B
:1041100048C11F928F9386EC9EE09F938F938BE80C
:1041200091E39F938F930E941E428FEF80932918F3
:1041300031C2823809F45EC1833859F70E94AC0855
:1041400050E0811154E09091F117892F90E0880F91
:10415000991F60911F172091171848E0211101C085
:1041600040E020910D1870E1279F90011124822BCF
:10417000862B852B842B78C0863809F492C108F4ED
:104180008DC1873809F4DCC1883819F68BE891E3D2
:104190000E94CA3F69C0833C09F415C208F077C089
:1041A000803C09F4D9C158F58A3809F0B2CF809122
:1041B0002518882309F467C060E270E08FED90E372
:1041C0000E94E83A62E170E08FED90E30E941E03E6
:1041D0008FED90E30E94633B60E270E08FED90E32F
:1041E0000E94E83A41E060E28FED90E30E94603B7C
:1041F0008FED90E30E94133A887F816035C0813C47
:1042000009F4DEC1823C09F084CF11E02091892AB3
:1042100030918A2A80918B2A90918C2A281739070D
:1042200009F410E081E00E947639880F812B90918B
:104230002A18892B880F880F80932A1811E0209163
:10424000561E3091571E8091581E9091591E281766
:10425000390709F410E080E00E947639880F982F22
:10426000912B80912A18892B80932A1880912918E4
:10427000982F9D7F943809F40ACF873C09F407CF23
:10428000893C09F404CF8FEF8093291800CF873C35
:1042900009F4BCC108F040C0843C09F03ACF8FEF6C
:1042A00080932A1880918B2A90918C2A2091892AB8
:1042B00030918A2A2817390731F3FC01E757FB4D63
:1042C000208120932A18019660E076E00E946C45D8
:1042D00090938C2A80938B2A80917A2481FFD3CF6C
:1042E0001F922F938DE495E09F938F938BE891E33A
:1042F0009F938F930E941E42809147180F900F90BA
:104300000F900F900F900F9081FFB0CF60912A18FF
:1043100080E00E94A039AACF883C09F49DC1893C65
:1043200009F0F7CE8091271890912818892B99F4DD
:104330008091ED17813818F080E88093ED17409157
:10434000ED176CE677E18091EE179091EF170E94E0
:10435000E00E8093EC1780912718909128188038F0
:10436000910530F4FC01E459F84E208120932A187D
:10437000019690932818809327182091ED172817FD
:10438000190609F073CF8091EC172091EE17309148
:10439000EF17820F932F911D9093EF178093EE17D5
:1043A00079C080910A1860CF80912618882309F47B
:1043B0006ACF60E270E08FED90E30E94E83A62E13C
:1043C00070E08FED90E30E941E038FED90E30E945A
:1043D000633B60E270E08FED90E30E94E83A41E0D9
:1043E00060E28FED90E30E94603B8FED90E30E94CE
:1043F000133A3ACF80912618882309F444CF60E21B
:1044000070E08FED90E30E94E83A63E170E0D9CF6D
:104410008091F1178823F1F1809127189091281845
:10442000892B21F481EF97E10E94400F809127189A
:10443000909128188730910508F018CF2091F61731
:1044400083309105E9F068F42091F41781309105EB
:10445000B9F02091F5178230910591F02091F31772
:104460000FC02091F8178530910551F02091F71772
:104470008530910528F02091F9178630910571F764
:1044800020932A180196909328188093271807974D
:1044900009F0ECCE8FEF80932918E8CE80910601C9
:1044A000E3CE8091271890912818892BD1F4809120
:1044B0001B1790911C178115A2E09A0790F4209188
:1044C0001A17203270F43091060131110AC035E01C
:1044D000880F991F3A95E1F7822B0E947607809307
:1044E00006018091060181111EC0109127181F71CD
:1044F00099F46DE177E182E297E10E943E078093B3
:10450000060180911D17803218F483E18093060123
:1045100080910601811107C0E12FF0E0EE5DF84EB9
:10452000808180932A1880912718909128188F3FB6
:10453000B1E09B0708F484C02FEF2093291880C0B6
:1045400082E497E10E944F278FCE809116188093C6
:104550002A18109216188ACE80911617482F50E00C
:104560008230F8F423E33CE0429FF001439FF00DDA
:10457000529FF00D1124EE5BF74E958190932A180F
:104580001F928F931F929F9380E89EE09F938F933B
:104590000E9491030F900F900F900F900F900F902B
:1045A00065CE1F928F9381EA9EE09F938F938BE855
:1045B00091E39F938F930E941E4210922A18EACF94
:1045C0008091141851CE8FEF80932A188091581E35
:1045D0009091591E2091561E3091571E2817390769
:1045E00009F451CE2091471821FD4DCEFC01EE5B20
:1045F000F74E248920932A18019660E076E00E9405
:104600006C459093591E8093581E30CE8091271888
:10461000909128182091161730E043E35CE0249F26
:10462000F001259FF00D349FF00D11248430910589
:1046300068F4E80FF91FE25AFB4D208120932A18F5
:104640000196909328188093271810CEEE59FB4DB1
:10465000208120932A1870CF8091EC1705CE299ADB
:104660005E98289A4A99FECF0C94381A80930418C1
:104670000C943A1A5D980C946B1A479A0C94781A19
:10468000823061F40E94D7038DEF9EE09F938F9359
:104690000E9491030F900F900C94881A833031F48C
:1046A00081E080931B1889E09FE0F0CF843011F007
:1046B0000C94881A10921B1881E19FE0E7CF80913B
:1046C00006188F5F8A3020F4809306180C94AB1A7A
:1046D0001092061880910718815080930718811155
:1046E0000C94AB1A8091FA179091FB17A091FC17CC
:1046F000B091FD170196A11DB11D8093FA179093FB
:10470000FB17A093FC17B093FD1781EF97E10E9470
:10471000400F8091F3178093FE178091F4178093D8
:10472000FF178091F517809300188091F6178093FA
:1047300001188091F717809302188091F8178093E1
:1047400003188091F017882391F04AE06AEF77E12F
:1047500090E080E00E94AB198091091887FF1CC08F
:1047600080E00E943011109209180C94AB1A8AEF65
:10477000E82E87E1F82E10E000E01A830983F701A4
:1047800061917F01CE0101960E9425030F5F1F4FAB
:104790000A30110591F7E0CF0E94D703E4CF8330B0
:1047A0009105B1F0049711F00C94FE1A8091101746
:1047B0000E94702D0C94FE1A0E94D42D0C94FE1AA7
:1047C00060911317809114170E945D2D0C94FE1AAE
:1047D000809110170E94092E0C94FE1A029711F076
:1047E0000C94341A80910617823009F021CA84E0B3
:1047F00090E0909312178093111780910717809380
:104800001017F1C88EBD0DB407FEFDCF08958FEFD0
:104810000E9402248EB50895FF920F931F93CF93A9
:10482000DF93C82FD42F152F062FF72E80913A181B
:1048300081113FC083E58CBD1DBCC7FF09C040E0AE
:1048400050E0BA0187E70E940C24823060F5CF77F0
:1048500061E084E00E943C3F0E94072460E084E025
:104860000E943C3F0E9407248C2F0E9402248F2D1F
:104870000E940224802F0E940224812F0E94022481
:104880008D2F0E94022485E9C03421F087E8C834C6
:1048900009F081E00E940224CAE00E94072487FFF9
:1048A00002C0C150D1F7DF91CF911F910F91FF90BE
:1048B000089580E58CBD81E08DBDBFCF0F931F9320
:1048C000CF93DF93C0913818D09139182197CD3FFD
:1048D0008FEFD80721F080E00E940224F7CF0E94DA
:1048E00007248F71853079F0D1E0C0E061E084E089
:1048F0000E943C3F0E9407248D2F9C2FDF91CF9177
:104900001F910F91089508E813E1C4EFD1E00E94D0
:1049100007248F3F49F00115110531F3CE010197AE
:10492000F1F701501109F3CFD1E0C0E0012BF1F212
:10493000D0E0DCCFAF92BF92CF92DF92EF92FF92A6
:104940000F931F93CF93DF9300D000D0CDB7DEB786
:1049500080913A18882339F084E00E946A3F892BBD
:1049600011F40E945E2461E084E00E943C3F61E01B
:1049700084E00E94003F61E085E00E94003F61E02A
:1049800087E00E94003F61E084E00E94003F83E5F1
:104990008CBD1DBC61E084E00E943C3F1AE00E9497
:1049A00007241150E1F740E050E0BA0180E40E9492
:1049B0000C24182F8130D9F010E010933A1861E0E0
:1049C00084E00E943C3F0E94072481E0111180E0B6
:1049D0000F900F900F900F90DF91CF911F910F913B
:1049E000FF90EF90DF90CF90BF90AF9008954AEA8C
:1049F00051E060E070E088E40E940C24813079F599
:104A0000CE0101967C016E0195E0C90ED11C870193
:104A10000E940724F80181938F01CE16DF06C1F7AB
:104A20008B81813049F68C818A3A31F620E1C22EA1
:104A300027E2D22E34EFA32EBB24B39440E050E003
:104A400060E070E489EE0E940C24882359F1C501CE
:104A50000197F1F7F1E0CF1AD10881F7ADCF40E02F
:104A600050E0BA0189EE0E940C2401E4823010F477
:104A700012E009EE80E1E82E87E2F82E94EFC92ECD
:104A8000DD24D39440E050E0BA01802F0E940C2432
:104A90008823F1F0C6010197F1F7F1E0EF1AF10870
:104AA00089F78ACF40E050E0BA018AE70E940C24DF
:104AB000811182CF0E940724F70181937F010E1795
:104AC0001F07C1F789811CE086FD77CF14E075CF01
:104AD00040E052E060E070E080E50E940C24882312
:104AE00009F46BCF69CFCF92DF92EF92FF920F93D1
:104AF0001F93CF93DF937C01690180913A1883FD66
:104B000007C089E0440F551F661F771F8A95D1F7AC
:104B100081E50E940C24811108C0C0E4DCE90E94F8
:104B200007248F3F29F42197D1F7C1E0D0E022C0BC
:104B30008E3FD9F7C2E0D2E0C01BD10BCC19DD0902
:104B400081E0C81AD10818F00E940724F9CFE114B7
:104B5000F10401F10E0D1F1D0E940724F70181933E
:104B60007F010E171F07C1F70E9407242197E1F765
:104B7000D0E0C0E061E084E00E943C3F0E94072456
:104B8000CE01DF91CF911F910F91FF90EF90DF90B9
:104B9000CF9008950E94072401501109D9F7E4CF5E
:104BA000EF92FF920F931F93CF93DF930097C9F07B
:104BB000EA018C012097B1F1E0903818F090391893
:104BC000E114F10479F1F80181918F010E9402242E
:104BD000F1E0EF1AF108F0923918E09238182197B5
:104BE000E9CF411551056105710529F180913A1808
:104BF00083FD07C089E0440F551F661F771F8A9504
:104C0000D1F788E50E940C2481111DC08FEF0E940E
:104C100002248EEF0E94022480E092E090933918E3
:104C20008093381890E080E0DF91CF911F910F9131
:104C3000FF90EF900895DF91CF911F910F91FF901A
:104C4000EF900C945E2481E090E0EECF0F931F93E1
:104C5000E0913B18F0913C189B01AC0122503109C6
:104C60004109510986819781A085B1850297A109E3
:104C7000B109281739074A075B0778F4A281B0E029
:104C80000E94BA450289138924893589600F711FF2
:104C9000821F931F1F910F91089560E070E0CB0178
:104CA000F9CF0F931F93CF93DF93EC01E0913B1863
:104CB000F0913C18198218826C817D818E819F81D0
:104CC000613071058105910581F10681178120858B
:104CD0003185601771078207930738F561157105F3
:104CE0008105910539F42081233021F4668577858B
:104CF00080899189688779878A879B876115710583
:104D00008105910569F00E9426266C877D878E8734
:104D10009F8790E080E0DF91CF911F910F910895E0
:104D20006685778580899189F0CF81E090E0F3CF27
:104D30000F931F93CF93DF9300D000D0CDB7DEB792
:104D4000623071058105910528F461E070E080E032
:104D500090E055C0E0913B18F0913C180681178116
:104D600020853185601771078207930770F7AB01C3
:104D7000BC018081823031F1833039F79A012F777D
:104D80003327220F331F220F331F97E07695679545
:104D9000579547959A95D1F782859385A485B585D2
:104DA000480F591F6A1F7B1F04E010E0CE010196D7
:104DB0000E947325892B49F669817A818B819C81B8
:104DC0009F701DC09A013327220F331F452F562F86
:104DD000672F772782859385A485B585480F591F4E
:104DE0006A1F7B1F02E010E0CE0101960E9473252E
:104DF000892B09F0AACF69817A8190E080E00F9039
:104E00000F900F900F90DF91CF911F910F91089508
:104E1000CF92DF92EF92FF920F931F93CF93DF9386
:104E2000EC016A017B0102E010E02EEF31E00E940C
:104E30007325892B31F58881998185359A4A59F5F1
:104E400026E330E0B701A601CE010E947325892B2D
:104E500029F4888199818634914489F002E010E038
:104E600022E530E0B701A601CE010E947325892B0F
:104E7000A1F481E0288139812634314419F480E09D
:104E800001C083E0DF91CF911F910F91FF90EF90D0
:104E9000DF90CF90089582E0F5CF81E0F3CF2F929D
:104EA0003F924F925F926F927F928F929F92AF92BA
:104EB000BF92CF92DF92EF92FF920F931F93CF9307
:104EC000DF93CDB7DEB7A4970FB6F894DEBF0FBE61
:104ED000CDBF1C0110923C1810923B180E949A24DE
:104EE00080FDC3C040E050E0BA01CE0101960E94AF
:104EF0000827412C512C32018130C1F500E110E02E
:104F00002EEB31E040E050E0BA01CE0101960E9464
:104F10007325892BD9F081E090E0A4960FB6F89420
:104F2000DEBF0FBECDBFDF91CF911F910F91FF90DC
:104F3000EF90DF90CF90BF90AF909F908F907F9039
:104F40006F905F904F903F902F9008958D818111C9
:104F500003C086E090E0E1CF49845A846B847C846E
:104F6000B301A201CE0101960E940827833099F275
:104F70008111EFCF04E210E02DE030E0B301A20197
:104F8000CE0101960E947325892B29F62A853B853F
:104F900050E040E0211531054105510521F4288DEF
:104FA000398D4A8D5B8DAC81B0E00E94BA454B01D2
:104FB0005C014A815B8170E060E0440E551E661E14
:104FC000771EF10142865386648675862981228385
:104FD000CD80DE80D582C4828F819885B0E0A0E04C
:104FE0000097A105B10521F48C899D89AE89BF89FF
:104FF00034E0D694C7943A95E1F7F12CE12C841B68
:10500000950BA60BB70BBC01CD01681979098A096C
:105010009B096C197D098E099F0930E050E040E042
:105020000E948045DA01C9010296A11DB11DF1015E
:1050300086839783A087B187265F3F404109510946
:105040002F3F3F4E4105510598F0873F9F4FA105E7
:10505000B10598F47ECF82E0F1018083D301C201D3
:10506000880D991DAA1DBB1D0FC082E090E055CF91
:10507000873F9F4FA105B10570F383E0F101808365
:1050800088A199A1AAA1BBA186879787A08BB18B84
:10509000C40CD51CE61CF71CC80CD91CEA1CFB1C54
:1050A000F101C28AD38AE48AF58A118230923C18CF
:1050B00020923B1890E080E030CF4F925F926F9249
:1050C0007F928F929F92BF92CF92DF92EF92FF9248
:1050D0000F931F93CF93DF93CDB7DEB7EC970FB647
:1050E000F894DEBF0FBECDBFC0903B18D0903C18E7
:1050F000C114D10409F40DC1F60111829E012F5C87
:105100003F4F3CA32BA39C017901F90180812F5FC4
:105110003F4F8032C9F38F3209F479011DA21EA2DC
:105120001FA218A6F7018081A0E2BA2E803208F0F3
:10513000DDC0CE0181960E9451261982009709F4A4
:1051400010C1EC960FB6F894DEBF0FBECDBFDF9155
:10515000CF911F910F91FF90EF90DF90CF90BF9074
:105160009F908F907F906F905F904F90089520E078
:10517000E0E088E0D8C0E30EF11C81E0913208F055
:1051800080E01B968C93CE0181960E945126009759
:10519000C1F629A13AA12F703327F5E0220F331F62
:1051A000FA95E1F74DA55EA56FA578A900E210E09C
:1051B000CE0101960E947325892B19F081E090E0C1
:1051C000C0CF8981811103C083E090E0BACF8C8584
:1051D00083FD13C00BA11CA19E012F5F3F4FD8017F
:1051E000B801655F7F4F6A177B0709F4B5C0F90105
:1051F00041919F019D914917B1F309A11AA10F5F38
:105200001F4F11F38DA59EA5AFA5B8A90097A105C5
:10521000B105D1F298012F703327232BD9F4809058
:105220003B1890903C180196A11DB11D8DA79EA71B
:10523000AFA7B8AB69A57AA58BA59CA5F4016115AC
:1052400071058105910549F4848195810817190735
:1052500008F0BACF1AA309A39CCF2281E22FE15014
:10526000FF0BAF019801E4E036952795EA95E1F749
:1052700024233523232B71F70E9498266230710571
:105280008105910508F49ACFF40146805780608427
:105290007184641575058605970508F095CF69A793
:1052A0007AA78BA79CA70E9426266DA77EA78FA70B
:1052B00098ABD0CF84FF88CFE0913B18F0913C1899
:1052C00080818330F1F48D899E89B0E0A0E0DC011B
:1052D000992788274B8D5C8D70E060E0842B952B9F
:1052E000A62BB72B8DA39EA3AFA3B8A7ABA1BCA140
:1052F000FD01CD010B968E179F0709F438CFB192AF
:10530000FACF80E090E0DC01E5CF80E090E0DC01C6
:105310003DC085E090E015CF883009F02CCF9BE0B0
:10532000282FE32F892F31E03E0FEE0DFF2DF11DC9
:105330009081913208F41FCF9F3209F41CCF9E3226
:1053400059F3281708F017CFFD01E20FF11D9083E4
:10535000982F81E0820FE4CFF8019385992309F417
:10536000A9CF8981882309F42FCF8C8584FD2CCF88
:10537000E0913B18F0913C188081833031F68D89A3
:105380009E89B0E0A0E0DC01992788274B8D5C8DD9
:1053900070E060E0842B952BA62BB72BF601868F4F
:1053A000978FA0A3B1A38D8D9E8DAF8DB8A1828F55
:1053B000938FA48FB58F168A178A108E118E81E075
:1053C000818390E080E0BDCE4F925F926F927F929A
:1053D0008F929F92AF92BF92CF92DF92EF92FF9205
:1053E0000F931F93CF93DF934C017B013A01C09140
:1053F0003B18D0913C18FA011182108285E090E0B0
:10540000209709F44BC0898180FFAAC08A8D9B8DAB
:10541000AC8DBD8D4E895F89688D798D841B950B10
:10542000A60BB70BA70170E060E084179507A607ED
:10543000B70708F47C015401412C32E0532EE114EB
:10544000F10409F490C08E899F89A88DB98DAC01B3
:10545000BD01517066277727452B462B472B09F056
:105460004CC0DA80DA94AC01BD0129E076956795ED
:10547000579547952A95D1F7D42261F5892B8A2B28
:105480008B2BE9F46E8D7F8D88A199A16230710517
:1054900081059105D8F4198281E090E0DF91CF91E8
:1054A0001F910F91FF90EF90DF90CF90BF90AF9042
:1054B0009F908F907F906F905F904F9008956AA11A
:1054C0007BA18CA19DA10E949826E0CF6AA37BA31B
:1054D0008CA39DA36AA17BA18CA19DA10E942626DD
:1054E0006115710581059105B1F26D0D711D811D6B
:1054F000911D6EA37FA388A799A72E893F8931703C
:10550000C201821B930B67018E159F0508F46C0185
:105510004EA15FA168A579A5C5018114910411F47C
:1055200080E090E086010E947325892B09F0B3CFBB
:105530008E899F89A88DB98D8C0D9D1DA11DB11DD2
:105540008E8B9F8BA88FB98FAC0CBD1CEC18FD08FF
:10555000F30180819181C80ED91ED182C0826FCFA4
:1055600084E090E09BCF90E080E098CF4F925F92F4
:105570006F927F928F929F92AF92BF92CF92DF9263
:10558000EF92FF920F931F93CF93DF936C018B01E8
:105590005A01C0913B18D0913C18FA011182108237
:1055A00085E090E02097A1F0898180FFE0C08074C1
:1055B000672B29F58823E9F040E050E0BA0190E03C
:1055C00080E00E94D025892BA1F0198281E090E033
:1055D000DF91CF911F910F91FF90EF90DF90CF90CF
:1055E000BF90AF909F908F907F906F905F904F9003
:1055F000089589818F7B898390E080E0E9CF8111D4
:105600000AC08E899F89A88DB98D88279E7F8E8B31
:105610009F8BA88FB98F8A8D9B8DAC8DBD8D4E8948
:105620005F89688D798D841B950BA60BB70BA8013C
:1056300070E060E084179507A607B70708F48C01AF
:10564000812C32E0932E01151105B1F28E899F89CC
:10565000A88DB98D9C013170232B09F040C0FA80D0
:10566000FA94AC01BD0129E0769567955795479569
:105670002A95D1F7F42299F4892B8A2B8B2B09F0E8
:105680006FC06E8D7F8D88A199A1623071058105F3
:10569000910508F49ACF6AA37BA38CA39DA36AA16A
:1056A0007BA18CA19DA10E94262661157105810513
:1056B000910509F48ACFAB01BC014F0D511D611D4D
:1056C000711D4EA35FA368A779A790E080E00E94B8
:1056D000D025892B09F079CF8981806489838E89CF
:1056E0009F8991709401281B390B7801201731078D
:1056F00008F479012701712C612CB301A701C601BF
:105700000E94D025892B09F060CF8E899F89A88DB2
:10571000B98D840D951DA61DB71D8E8B9F8BA88FEF
:10572000B98FCE0CDF1C0E191F09F50120813181C4
:10573000E20EF31EF182E0822C01F1E05F224528A7
:1057400009F081CF40E050E0BA0190E080E00E9493
:10575000D025892B09F039CF89818F7B898373CF3D
:105760006AA17BA18CA19DA10E9498268ECF84E086
:1057700090E02ECF4F925F926F927F928F929F9286
:10578000AF92BF92CF92DF92EF92FF92CF93DF93CF
:1057900000D000D000D0CDB7DEB720913B183091BB
:1057A0003C183E832D832115310509F40CC1D90124
:1057B00011962C91119720FF09C15A96CD90DD903A
:1057C000ED90FC905D976C157D058E059F0510F49E
:1057D0006B017C01ED81FE8146885788608C718C5D
:1057E000168A178A108E118EC114D104E104F104B7
:1057F00009F4E6C08280912CB12CA12C39E0880CF0
:10580000991CAA1CBB1C3A95D1F7411451046104A0
:10581000710409F470C0B1E04B1A510861087108B5
:10582000C701B6016150710981099109A50194016F
:105830000E94804529833A834B835C83C301B20174
:10584000A50194010E94804589819A81AB81BC8128
:1058500082179307A407B50708F44DC08827992736
:10586000DC0188199909AA09BB0984219521A6217F
:10587000B721ED81FE81868B978BA08FB18FC81ADF
:10588000D90AEA0AFB0A62A173A184A195A18C142A
:105890009D04AE04BF0408F058C00E9498266230F0
:1058A00071058105910568F0AD81BE8116964D9018
:1058B0005D906D907C901997641575058605970528
:1058C00040F1ED81FE81118281E090E026960FB6D5
:1058D000F894DEBF0FBECDBFDF91CF91FF90EF9068
:1058E000DF90CF90BF90AF909F908F907F906F9000
:1058F0005F904F900895AD81BE815E966D917D91D0
:105900008D919C919197FD0162A373A384A395A3AC
:10591000BECFAD81BE8192966D937D938D939C9306
:10592000959756964D905D906D907C905997480C48
:10593000591C6A1C7B1CFD01468A578A608E718E39
:10594000C818D908EA08FB08A2CFAD81BE815696D7
:105950008D909D90AD90BC905997C80CD91CEA1CB5
:10596000FB1CFD01C68AD78AE08EF18E0E94262696
:10597000AB01BC01411551056105710529F4AD81EB
:10598000BE8111961C92A0CFED81FE818281815053
:10599000990B092E000CAA0BBB0B29E0F694E79497
:1059A000D794C7942A95D1F78C219D21AE21BF2190
:1059B000480F591F6A1F7B1F46A357A360A771A7F3
:1059C00090E080E083CF85E090E080CF84E090E0BD
:1059D0007DCF9093401880933F180895CF93C82FA0
:1059E0006CE370E08FED90E30E94E83A60E08FEDA9
:1059F00090E30E946C3A6C2F8FED90E30E946C3A1A
:105A00008FED90E3CF910C94633B6CE370E08FEDEE
:105A100090E30E94E83A8FED90E30E94633B81118E
:105A20004AC080E880933E188EEA0E94EE2C85EDF5
:105A30000E94EE2C80E80E94EE2C88EA0E94EE2C58
:105A40008FE30E94EE2C83ED0E94EE2C80E00E94FA
:105A5000EE2C80E40E94EE2C81EA0E94EE2C88EC71
:105A60000E94EE2C8AED0E94EE2C82E10E94EE2C28
:105A700081E80E94EE2C80E80E94EE2C89ED0E94C5
:105A8000EE2C82E20E94EE2C8BED0E94EE2C85E340
:105A90000E94EE2C84EA0E94EE2C86EA0E94EE2CF4
:105AA0008DEA0E94EE2C8BE80E94EE2C8FEA0E9479
:105AB000EE2C81E0089580E00895CF93C2E0C80FF6
:105AC000862F8F70806B0E94EE2C8C2F8F700E941F
:105AD000EE2C8C2F82958F708061CF910C94EE2CE0
